:100000000C94370D0C94680D0C94680D0C94680DCD
:100010000C94680D0C94680D0C94680D0C94680D8C
:100020000C94680D0C94680D0C94680D0C94680D7C
:100030000C94680D0C94FF450C94680D0C94680D9D
:100040000C94680D0C949D700C94680D0C94680DC4
:100050000C94680D0C94680D0C94FAA00C94C44791
:100060000C94680D0C943C450C9413450C94680D4D
:100070000C94680D0C94680D0C94680D0C94680D2C
:100080000C9455530C94680D0C94680D0C94680DE9
:100090000C94EA440C94C1440C94680D0C940E48E2
:1000A0000C94680D0C94680D0C9428530C94680DF6
:1000B0000C94680D0C94680D0C94680D0C94FB5214
:1000C0000C94680D0C94680D0C94680D0C94984475
:1000D0000C946F440C94680D0C94680D0C94680D8E
:1000E0000C94680DE81F042009201F2035204B20A8
:1000F000502066203C2743276927C227C927D027DD
:10010000D727DE27E5279A27BB27702793277E2747
:1001100085278C277727F127F82702280C28DDABC5
:10012000F0AB31ACE4ADF9AD11AEA7AE76AF76AFC2
:1001300062AF8643894378437C438243C0438D4307
:10014000914397439B439F43A543A943AD43C0437A
:10015000B343B743BB43C146C646CB46D546DF464D
:100160005847E946F146F94603470D4717472647E2
:10017000304758473A4744474E4751A15FA1B8A17D
:10018000BBA1BEA1C1A1C4A1C7A1CAA1CDA1D0A13B
:10019000D3A1DDA1036EDB363D9A9999993DABAAB7
:1001A000AA2A3E000000803F084AD73B3BCE016EA2
:1001B00084BCBFFDC12F3D6C74319ABD56833DDABE
:1001C0003D00C77F11BED9E4BB4C3E916BAAAABECD
:1001D000000000803F072C7AA5BA6CC590DA3B93EB
:1001E00065FC8BBC53F810FD3C5692834DBD879D3A
:1001F0003AB63DCBC9BF5BBE73DA0FC93F05A84C09
:10020000CDB2D44EB93836A9020C50B991868808BF
:100210003CA6AAAA2ABE000000803F002569730000
:1002200025696D20256973002569682025696D2081
:1002300025697300256964202569682025696D207A
:10024000256973002569792025696420256968205E
:1002500025696D20256973005072696E7420746978
:100260006D653A20004B494C4C45442E20006F6B85
:10027000003F0A0020573A004163746976652045C3
:10028000787472756465723A2000220A00556E6BAC
:100290006E6F776E20636F6D6D616E643A20220021
:1002A0004B494C4C45442E2000202D20496E766150
:1002B0006C6964206578747275646572206E756D02
:1002C00062657220210A002020506C616E6E65729A
:1002D00042756666657242797465733A20002046FD
:1002E000726565204D656D6F72793A20004D6172BF
:1002F00020313020323031380A00436F6D70696C24
:1003000065643A2000286E6F6E652C206465666116
:10031000756C7420636F6E666967290A00207C2003
:10032000417574686F723A2000323031362D3037A3
:100330002D33312031323A303000204C617374203B
:10034000557064617465643A200020312E312E307E
:100350002D5243370A004D61726C696E0020536F55
:100360006674776172652052657365740A00205760
:1003700061746368646F672052657365740A002056
:1003800042726F776E206F75742052657365740AC0
:10039000002045787465726E616C205265736574D7
:1003A0000A00506F77657255700A00737461727439
:1003B0000A00205A3A0020593A0020583A00656E47
:1003C0006473746F7073206869743A2000656368A1
:1003D0006F3A00205A3A0020593A0020436F756E58
:1003E0007420583A200020453A00205A3A002059FB
:1003F0003A00583A004649524D574152455F4E41E6
:100400004D453A4D61726C696E20312E312E302D82
:1004100052433720284769746875622920534F5525
:100420005243455F434F44455F55524C3A6874749C
:1004300070733A2F2F6769746875622E636F6D2F22
:100440004D61726C696E4669726D776172652F4D90
:1004500061726C696E2050524F544F434F4C5F563F
:10046000455253494F4E3A312E30204D4143484971
:100470004E455F545950453A3344205072696E746A
:1004800065722045585452554445525F434F554E6E
:10049000543A3120555549443A63656465326132B6
:1004A000662D343161322D343734382D3962313292
:1004B0002D6335356336326633363766660A005348
:1004C000657474696E672054726176656C2041634F
:1004D00063656C65726174696F6E3A200053657470
:1004E00074696E672052657472616374204163633E
:1004F000656C65726174696F6E3A2000536574743F
:10050000696E67205072696E7420416363656C6523
:10051000726174696F6E3A200053657474696E6716
:10052000205072696E7420616E6420547261766529
:100530006C20416363656C65726174696F6E3A200B
:10054000003A200020536572766F200020643A0044
:1005500020693A0020703A0043290A0061626C6504
:100560006420286D696E2074656D702000436F6C87
:10057000642065787472756465732061726520000B
:1005800023646566696E65202044454641554C5498
:100590005F4B64200023646566696E6520204445D6
:1005A0004641554C545F4B69200023646566696E73
:1005B00065202044454641554C545F4B7020005007
:1005C0004944204175746F74756E652066696E6963
:1005D00073686564212050757420746865206C61AF
:1005E0007374204B702C204B6920616E64204B6427
:1005F00020636F6E7374616E74732066726F6D200A
:1006000062656C6F7720696E746F20436F6E6669E8
:100610006775726174696F6E2E680A0050494420D4
:100620004175746F74756E65206661696C656421CF
:100630002074696D656F75740A00504944204175D6
:10064000746F74756E65206661696C6564212054F1
:10065000656D706572617475726520746F6F206866
:100660006967680A00204B643A2000204B693A20F1
:1006700000204B703A200020436C61737369632043
:10068000504944200A002054753A2000204B753A06
:100690002000206D61783A2000206D696E3A2000BC
:1006A00020643A200020626961733A2000546F6F21
:1006B000206661722066726F6D2072656665726574
:1006C0006E636520706F696E740A000000AFC3002E
:1006D00000AFC30000AFC3220A00656E7175657577
:1006E00065696E672022004E6F204C696E65204E52
:1006F000756D626572207769746820636865636BE5
:1007000073756D2C204C617374204C696E653A20B2
:10071000004B494C4C45442E20005072696E746564
:10072000722073746F707065642064756520746FD7
:10073000206572726F72732E204669782074686526
:10074000206572726F7220616E6420757365204D32
:1007500039393920746F20726573746172742E2078
:100760002854656D706572617475726520697320B7
:1007700072657365742E20536574206974206166F8
:100780007465722072657374617274696E67290A88
:10079000004E6F20436865636B73756D20776974D5
:1007A00068206C696E65206E756D6265722C204CD8
:1007B000617374204C696E653A2000636865636BF1
:1007C00073756D206D69736D617463682C204C6165
:1007D0007374204C696E653A20004C696E65204E3A
:1007E000756D626572206973206E6F74204C617341
:1007F00074204C696E65204E756D6265722B312CCC
:10080000204C617374204C696E653A20004D313183
:10081000300000002100240027002A002D003000B5
:10082000330001010000040107010A01000020005B
:100830002300260029002C002F00320000010000B8
:1008400003010601090100000A0B02090C0D0E0844
:100850000703040100000000000000000000000089
:100860000000000000000000000000000000000088
:100870000000121110000000000000000000000045
:100880000000000000000000000000000102102035
:1008900020080810204010204080020102010804B6
:1008A000020101020408102040808040201008044A
:1008B00002018004020180402010080402010804A3
:1008C00002010102040810204080010204081020E7
:1008D000408000002200250028002B002E0031005F
:1008E000340002010000050108010B0105050505A2
:1008F000070508080808020202020A0A0808040498
:1009000004040101010101010101030303030303C5
:100910000303040707070C0C0C0C0C0C0C0C020254
:10092000020206060606060606060B0B0B0B0B0B51
:100930000B0B0220746F6F206C6F6E6720657874EC
:10094000727573696F6E2070726576656E7465641A
:100950000A0020636F6C6420657874727573696F28
:100960006E2070726576656E7465640A0048617207
:1009700064636F6465642044656661756C742053BC
:10098000657474696E6773204C6F616465640A00F6
:1009900020204D3230302044300A0020204D3230AB
:1009A000302044002044697361626C65640A00462B
:1009B000696C616D656E742073657474696E6773BC
:1009C0003A0020440020490020204D33303120508F
:1009D000005049442073657474696E67733A0A0065
:1009E000205A0020590020204D323036205800482F
:1009F0006F6D65206F666673657420286D6D290ABA
:100A000000204500205A00205800204200205400B9
:100A100020204D323035205300416476616E63658D
:100A200064207661726961626C65733A20533D4D52
:100A3000696E20666565647261746520286D6D2F2E
:100A400073292C20543D4D696E2074726176656C5B
:100A500020666565647261746520286D6D2F732949
:100A60002C20423D6D696E696D756D207365676DF3
:100A7000656E742074696D6520286D73292C20586B
:100A80003D6D6178696D756D205859206A65726B8E
:100A900020286D6D2F73292C20205A3D6D617869B7
:100AA0006D756D205A206A65726B20286D6D2F73ED
:100AB000292C2020453D6D6178696D756D2045209C
:100AC0006A65726B20286D6D2F73290A002054000F
:100AD00020520020204D32303420500041636365A5
:100AE0006C65726174696F6E733A20503D70726903
:100AF0006E74696E672C20523D7265747261637406
:100B000020616E6420543D74726176656C0A002029
:100B10004500205A0020590020204D323031205805
:100B2000004D6178696D756D20416363656C657218
:100B30006174696F6E20286D6D2F7332293A0A0037
:100B4000204500205A0020590020204D323033200B
:100B500058004D6178696D756D20666565647261D8
:100B600074657320286D6D2F73293A0A00204500A3
:100B7000205A0020590020204D393220580053744B
:100B80006570732070657220756E69743A0A007A18
:100B90005F6D696E3A2000795F6D696E3A2000786A
:100BA0005F6D696E3A20005265706F7274696E678E
:100BB00020656E6473746F70207374617475730A4A
:100BC0000024F4D43050C38E20C2A24017828B7010
:100BD00011127A910D816CD90AA861E108C7586693
:100BE00007615143061E4B5D05C145A7041A41111B
:100BF00004093D9803713931034036DB02653391B6
:100C000002D4305402802E1D02632CEE01752AC5D9
:100C100001B028A001102781018F2564012B244BEE
:100C200001E0223401AC211F018D200D01801FFC49
:100C300000841EED00971DDF00B81CD200E61BC625
:100C400000201BBC00641AB200B219A8000A19A047
:100C5000006A189900D117910040178B00B51684CF
:100C60000031167E00B31579003A157300C7146F72
:100C70000058146A00EE1366008813630025135EA3
:100C800000C7125B006C12570015125400C11151BD
:100C90000070114F0021114B00D61049008D1047F4
:100CA000004610440002104200C00F4000800F3E7A
:100CB00000420F3C00060F3B00CB0E3800930E376E
:100CC000005C0E3500270E3400F30D3200C10D31EB
:100CD00000900D3000600D2E00320D2D00050D2C02
:100CE00000D90C2B00AE0C2900850C29005C0C27C8
:100CF00000350C27000E0C2600E80B2400C40B2442
:100D000000A00B23007D0B23005A0B2100390B217F
:100D100000180B2000F80A1F00D90A1E00BB0A1E8B
:100D2000009D0A1D00800A1D00630A1C00470A1B63
:100D3000002C0A1B00110A1A00F7091A00DD091914
:100D400000C4091900AB091900920917007B0918A2
:100D500000630917004C0916003609160020091611
:100D6000000A091500F5081500E0081400CC081465
:100D700000B8081400A4081400900813007D08129D
:100D8000006B0813005808120046081200340811BE
:100D900000230811001208110001081100F00710CB
:100DA00000E0071000D0071000C0071000B0070FC8
:100DB00000A107100091070E0083070F0074070FB2
:100DC0000065070E0057070E0049070E003B070D90
:100DD000002E070E0020070D0013070D0006070D5B
:100DE00000F9060C00ED060D00E0060C00D4060C20
:100DF00000C8060C00BC060C00B0060C00A4060BD4
:100E00000099060C008D060B0082060B0077060B7E
:100E1000006C060B0061060A0057060B004C060A20
:100E20000042060A0038060A002E060A0024060AB6
:100E3000001A060A001006090007060A00FD050947
:100E400000F4050900EB050900E2050900D90509D0
:100E500000D0050900C7050900BE050900B5050851
:100E600000AD050800A50509009C050800940508CB
:100E7000008C050800840508007C0508007405083E
:100E8000006C050700650508005D050700560508AC
:100E9000004E050700470507004005080038050714
:100EA00000310507002A050700230507001C050679
:100EB00000160507000F05070008050600020507D4
:100EC00000FB040600F5040700EE040600E8040633
:100ED00000E2040700DB040600D5040600CF040688
:100EE00000C9040600C3040600BD040600B70406DA
:100EF00000B1040500AC040600A6040600A0040529
:100F0000009B04060095040500900406008A040571
:100F10000085040500800406007A040500750405B8
:100F200000700405006B04050066040500610405FB
:100F3000005C04050057040500520405004D04053B
:100F40000048040500430405003E0404003A04057B
:100F50000035040500300404002C040500270404B7
:100F600000230405001E0404001A040400160405EE
:100F700000110404000D0404000904050004040425
:100F80000000040400FC030400F8030400F403045C
:100F900000F0030400EC030400E8030400E403048D
:100FA00000E0030400DC030400D8030400D40304BD
:100FB00000D0030400CC030400C8030300C50303EE
:100FC0000024F404D9201BC40C5C0E9804C4095FEF
:100FD0000265077101F405F900FB04B300480487BA
:100FE00000C10369005803550003034500BE023ADF
:100FF000008402310053022A002902250004022045
:1010000000E4011C00C8011900AF01170098011489
:101010000084011300710110006101100051010EE4
:101020000043010D0036010B002B010B0020010BCA
:1010300000150109000C01090003010800FB00086C
:1010400000F3000800EB000700E4000600DE0006E5
:1010500000D8000600D2000600CC000500C700053D
:1010600000C2000500BD000400B9000400B5000482
:1010700000B1000400AD000400A9000400A50003B5
:1010800000A20003009F0004009B000300980003DF
:10109000009500020093000300900003008D000201
:1010A000008B000300880002008600020084000319
:1010B00000810002007F0002007D0002007B000230
:1010C000007900020077000100760002007400023F
:1010D0000072000100710002006F0002006D00014B
:1010E000006C0002006A0001006900020067000154
:1010F000006600010065000100640002006200015A
:101100000061000100600001005F0002005D00015D
:10111000005C0001005B0001005A00010059000161
:101120000058000100570001005600010055000161
:101130000054000100530000005300010052000160
:101140000051000100500001004F0001004E00005E
:10115000004E0001004D0001004C0001004B00005A
:10116000004B0001004A0001004900010048000056
:101170000048000100470001004600000046000151
:10118000004500000045000100440001004300004C
:101190000043000100420000004200010041000045
:1011A0000041000100400001003F0000003F00013D
:1011B000003E0000003E0001003D0000003D000137
:1011C000003C0000003C0000003C0001003B00002F
:1011D000003B0001003A0000003A00010039000025
:1011E000003900010038000000380000003800011C
:1011F0000037000000370001003600000036000014
:101200000036000100350000003500000035000107
:1012100000340000003400000034000100330000FE
:1012200000330000003300010032000000320000F3
:1012300000320001003100000031000000310001E7
:10124000003000000030000000300001002F0000DE
:10125000002F0000002F0000002F0001002E0000D2
:10126000002E0000002E0001002D0000002D0000C7
:10127000002D0000002D0001002C0000002C0000BB
:10128000002C0000002C0001002B0000002B0000AF
:10129000002B0000002B0001002A0000002A0000A3
:1012A000002A0000002A0001002900000029000097
:1012B000002900000029000000290001002800008A
:1012C000002800000028000000280000002800017D
:1012D0000027000000270000002700000027000072
:1012E0000027000100260000002600000026000064
:1012F0000026000000260001002500000025000057
:101300000025000000250000002500000025000148
:10131000002400000024000000240000002400003D
:10132000002400010023000000230000002300002F
:101330000023000000230000002300000023000120
:101340000022000000220000002200000022000015
:101350000022000000220001002100000021000006
:1013600000210000002100000021000000210000F9
:1013700000210001002000000020000000200000EB
:1013800000200000002000000020000000200000DD
:1013900000200001001F0000001F0000001F0000CF
:1013A000001F0000001F0000001F0000001F0001C0
:1013B000001E0000001E0000001E0000001E0000B5
:1013C00000544845524D414C2052554E41574159C9
:1013D00000546865726D616C2052756E6177617939
:1013E0000048656174696E67206661696C656400B8
:1013F00048656174696E67206661696C6564004365
:101400004F4D4D554E49434154494F4E004452595A
:1014100052554E004552524F525300494E464F00CE
:101420004543484F0020496E76616C6964206578B9
:1014300074727564657220000000AF430000AF4312
:101440000000AF430000AFC30000AFC30000AFC354
:1014500020746F6F206C6F6E67206578747275737F
:10146000696F6E2070726576656E7465640A00201F
:10147000636F6C6420657874727573696F6E207029
:10148000726576656E7465640A0020403A00202F0C
:101490000020543A0020141B1414140D14FF136F71
:1014A00066660044454255473A0070012C019001A0
:1014B0002701B0012201C0011D01F0011801100235
:1014C000130130020E016002090190020401C00202
:1014D000FF000003FA004003F5008003F000D00392
:1014E000EB002004E6007004E100E004DC004005AD
:1014F000D700C005D2004006CD00D006C800800746
:10150000C3003008BE00F008B900C009B400B00A3A
:10151000AF00B00BAA00D00CA500000EA000500F29
:101520009B00C01096005012910000148C00C01552
:101530008700B0178200B0197D00D01B7800001E14
:10154000730040206E0090226900F0246400402760
:101550005F0090295A00E02B5500102E50002030DB
:101560004B0010324600E033410090353C0010370C
:10157000370070383200A0392D00B03A2800A03B67
:101580002300603C1E00103D1900903D1400103EE9
:101590000F00703E0A00C03E0500003F00002C20F6
:1015A00073797374656D2073746F70706564212036
:1015B0004865617465725F49443A20004572726FF4
:1015C000723A00526573656E643A20006F6B004B8F
:1015D000494C4C45442E20004572723A204D4158EA
:1015E00054454D50004D415854454D50207472693A
:1015F000676765726564004572723A204D494E54C2
:10160000454D50004D494E54454D50207472696708
:101610006765726564005072696E746572206861F6
:101620006C7465642E206B696C6C28292063616C76
:101630006C6564210A00000000000000000000004A
:101640005F00000000000000070007000000001419
:101650007F147F14000000242A7F2A120000002338
:101660001308646200000036495522500000000053
:10167000050300000000001C2241000000000041A2
:10168000221C0000000000082A1C2A080000000894
:10169000083E0808000000A06000000000000008EC
:1016A000080808080000006060000000000000203A
:1016B000100804020000003E5149453E00000000B1
:1016C000427F40000000006251494946000000226C
:1016D000414949360000001814127F10000000270D
:1016E000454545390000003C4A49493000000001A9
:1016F000710905030000003649494936000000061B
:101700004949291E00000000363600000000000094
:10171000AC6C00000000000814224100000000141E
:1017200014141414000000412214080000000002E8
:1017300001510906000000324979413E0000007E57
:101740000909097E0000007F494949360000003E32
:10175000414141220000007F4141221C0000007FE6
:10176000494949410000007F090909010000003E84
:10177000414151720000007F0808087F00000041CD
:101780007F4100000000002040413F010000007F39
:10179000081422410000007F404040400000007FCC
:1017A000020C027F0000007F0408107F0000003E52
:1017B0004141413E0000007F090909060000003E4A
:1017C0004151215E0000007F0919294600000026D2
:1017D0004949493200000001017F01010000003F3A
:1017E0004040403F0000001F2040201F0000003FFD
:1017F0004038403F000000631408146300000003F9
:101800000478040300000061514945430000007F53
:1018100041410000000000020408102000000041C7
:10182000417F00000000000402010204000000806B
:101830008080808000000001020400000000002081
:10184000545454780000007F484444380000003865
:1018500044442800000000384444487F0000003819
:1018600054545418000000087E09020000000018BB
:10187000A4A4A47C0000007F0804047800000000F9
:101880007D00000000000080847D00000000007FDB
:1018900010284400000000417F4000000000007C50
:1018A000041804780000007C08047C000000003864
:1018B00044443800000000FC2424180000000018F4
:1018C0002424FC00000000007C0804000000004804
:1018D00054542400000000047F4400000000003C39
:1018E00040407C000000001C2040201C0000003C08
:1018F0004030403C00000044281028440000001CF8
:10190000A0A07C000000004464544C440000000887
:1019100036410000000000007F0000000000004190
:101920003608000000000002010102010000000270
:101930000505020000004E414E494E495459494E9A
:1019400046CDCCCC3D0AD7233C17B7D13877CC2B2A
:10195000329595E6241FB14F0A000020410000C8CF
:101960004200401C4620BCBE4CCA1B0E5AAEC59D50
:101970007400407A10F35A00A0724E18090010A5A6
:10198000D4E80000E87648170000E40B5402000099
:10199000CA9A3B000000E1F505000080969800001F
:1019A0000040420F000000A0860100000010270048
:1019B000000000E803000000006400000000000ACE
:1019C00000000000000100000000002C76D888DC38
:1019D000674F0823DFC1DFAE59E1B1B796E5E3E415
:1019E00053C63AE651997696E8E6C28426EB898C8E
:1019F0009B62ED407C6FFCEFBC9C9F40F2BAA56FF0
:101A0000A5F490055A2AF75C936B6CF9676DC11BBE
:101A1000FCE0E40D47FEF520E6B500D0ED902E0386
:101A200000943577050080841E080000204E0A00CF
:101A30000000C80C333333330F986E12831141EF1B
:101A40008D2114893BE65516CFFEE6DB18D1844B79
:101A5000381BF77C1D901DA4BBE424203284725EE9
:101A6000228100C9F124ECA1E53D2700A1B2112497
:101A70001FBECFEFD1E2DEBFCDBF00E00CBF1AE04A
:101A8000A0E0B2E0E4EAFCE801E00BBF02C007908E
:101A90000D92A837B107D9F727E1A8E7BAE001C04E
:101AA0001D92A73EB207E1F71DE0C7E3DDE000E0CD
:101AB00006C021970109802FFE010E94EDB4C633B4
:101AC000D10780E00807A9F70E94F6A40C9450C63D
:101AD0000C9400002F923F924F925F926F927F92F0
:101AE0008F929F92AF92BF92CF92DF92EF92FF922E
:101AF0000F931F93CF93DF93CDB7DEB7C056D1407E
:101B00000FB6F894DEBF0FBECDBF8091000D20E66A
:101B1000829FC00111248557954F90931D0C80938F
:101B20001C0C8091190F80FF18C00DEC13E0F80118
:101B30008491882341F0082E000C990B0E94CB92CF
:101B40000F5F1F4FF4CF80911C0C90911D0C0E94D1
:101B50003F948AE090E00E94CB9280911C0C90917F
:101B60001D0CFC01019620812032D9F3F0931D0C4D
:101B7000E0931C0C3E0121E8620E711C80E8D30149
:101B80001D928A95E9F780818332D9F53196CB5C35
:101B9000DE4F188219821A821B82C553D140AAE0F7
:101BA000B0E0CB5CDE4F288139814A815B81C5532F
:101BB000D1400E9431C62191022E000C330B2053DC
:101BC00031098901330F220B330B48015901860E6D
:101BD000971EA81EB91ECB5CDE4F88829982AA820E
:101BE000BB82C553D140808180538A30C0F2DF016F
:101BF00031968C918032D9F3B0931D0CA0931C0CBC
:101C000008C0CB5CDE4F188219821A821B82C55332
:101C1000D140E0911C0CF0911D0C80818E3469F054
:101C200010911C0C00911D0C6AE270E0812F902F26
:101C30000E9454B90097D9F421C0818190ED980F8A
:101C40009A3010F08D3261F7CF010296FC010196B7
:101C5000208120532A30D0F3CF01FC01019620814E
:101C60002032D9F3F0931D0CE0931C0CD9CFFC016A
:101C700031968291803231F08A3221F0A12FB02F3B
:101C80002D9102C01082F5CFFD0180811196803226
:101C9000D9F380538A3010F00C94FB2600E010E05A
:101CA0003AE0309FC001319F900D11248C01005308
:101CB00011098191080F111D87FD1A9580818053AC
:101CC0008A3078F3CF01FC01019630813032D9F3AC
:101CD000F0938A0AE093890A2D3409F44DC724F45D
:101CE000273481F00C94FB26203511F40C94BB248E
:101CF000243511F00C94FB260093E30C0DEC13E05B
:101D00000C9495240B35110509F41CC528F50430F5
:101D1000110570F40230110508F0A2C0011511057B
:101D200009F444C00130110509F45EC00C94FB268F
:101D30000C31110511F40C943D280A35110509F4F4
:101D4000FBC40430110511F00C94FB260E94BE87E1
:101D500010E000E00C949F260A3928E0120709F4ED
:101D6000C1C580F4043D47E0140709F4B1C5093941
:101D700058E0150709F4B2C50C35110511F00C94A3
:101D8000FB26E7C40C3988E0180709F4D8C608F424
:101D9000CEC60D39184011F00C94FB261091880A1C
:101DA00081E08093880A0E945690D0C680914813A3
:101DB000909149138D7F019709F040C080910B0CE1
:101DC000882339F08091E20C882319F00E945897FB
:101DD000F5CF10920B0C8091481390914913019705
:101DE00069F560E070E027C0809148139091491335
:101DF0008D7F019719F580910B0C811107C080919F
:101E0000E20C882319F00E945897F5CF81E0809367
:101E10000B0C8091481390914913019779F480E558
:101E20000E94C93C882321F00E94DC3C8093000280
:101E30006091000270E088E00E949A460E94DD8C6A
:101E4000882311F40C944F281F928F9381E896E019
:101E50009F938F937F926F920E9498B90C941E2645
:101E600080915C02811104C010E000E00C949F2678
:101E70000E948B8A89E40E94C93C882329F00E9431
:101E8000463D6B017C0103C0C12CD12C76018AE454
:101E90000E94C93C882359F00E94463DCB5DDE4F2D
:101EA000688379838A839B83C552D14008C0CB5D08
:101EB000DE4F188219821A821B82C552D140A701B7
:101EC0009601C701B6010E9408C04B015C01CB5DC1
:101ED000DE4F288139814A815B81C552D140CA01D8
:101EE000B9010E9408C09B01AC01C501B4010E9468
:101EF00005B50E94E1B7CB5ADE4F688379838A83A8
:101F00009B83C555D14080905A1390905B13A0904D
:101F10005C13B0905D13C75DDE4F88829982AA8200
:101F2000BB82C952D140A7019601C501B4010E94EC
:101F300005B5C35CDE4F688379838A839B83CD5369
:101F4000D14080905E1390905F13A0906013B0908A
:101F50006113CF5CDE4F88829982AA82BB82C15313
:101F6000D140CB5DDE4F288139814A815B81C552EA
:101F7000D140C501B4010E9405B5CF5BDE4F688337
:101F800079838A839B83C154D1408090621390905F
:101F90006313A0906413B0906513CB5BDE4F88820F
:101FA0009982AA82BB82C554D140A5019401609157
:101FB000F80C7091F90C8091FA0C9091FB0C0E9436
:101FC00004B5C75CDE4F688379838A839B83C953DA
:101FD000D1408090FC0C9090FD0CA090FE0CB09035
:101FE000FF0CC75ADE4F88829982AA82BB82C955EC
:101FF000D1408090661390906713A0906813B090C2
:102000006913C75BDE4F88829982AA82BB82C9545A
:10201000D140A70196015058CF5DDE4F2883398308
:102020004A835B83C152D140CB5DDE4F8881998169
:10203000AA81BB81C552D140B058C35DDE4F8883B1
:102040009983AA83BB83CD52D1408090F00C9090AD
:10205000F10CA090F20CB090F30CC35BDE4F8882C1
:102060009982AA82BB82CD54D140C35CDE4F2881C5
:1020700039814A815B81CD53D140C501B4010E94B1
:1020800004B56B017C018090F40C9090F50CA0904D
:10209000F60CB090F70CCF5ADE4F88829982AA8254
:1020A000BB82C155D140CF5BDE4F288139814A8147
:1020B0005B81C154D140C501B4010E9404B54B01FC
:1020C0005C01A7019601CF5DDE4F688179818A812D
:1020D0009B81C152D1400E9408C02B013C01A50147
:1020E0009401C35DDE4F688179818A819B81CD52E5
:1020F000D1400E9408C09B01AC01C301B2010E9403
:1021000005B52B013C01A5019401CF5DDE4F68812F
:1021100079818A819B81C152D1400E9408C04B01C4
:102120005C01A7019601C35DDE4F688179818A81D8
:102130009B81CD52D1400E9408C09B01AC01C501DA
:10214000B4010E9404B5A30192010E949BB56B01EA
:102150007C0120E030E0A9010E94A3BF87FF0AC0F4
:102160002BED3FE049EC50E4C701B6010E9405B5F4
:102170006B017C010230110551F42BED3FE049EC7D
:1021800050E4C701B6010E9404B56B017C0120E058
:1021900030E0A901C701B6010E94A3BF811132C07E
:1021A000C35BDE4F288139814A815B81CD54D140A8
:1021B000C75DDE4F688179818A819B81C952D14098
:1021C0000E94A3BF81111EC0CF5ADE4F28813981E2
:1021D0004A815B81C155D140CF5CDE4F68817981F6
:1021E0008A819B81C153D1400E94A3BF81110AC043
:1021F0002BED3FE049EC50E4C701B6010E9405B564
:102200006B017C01CB5ADE4F288139814A815B8189
:10221000C555D140C701B6010E9408C09B01AC0161
:102220000E9408C04B015C01C75CDE4F28813981E8
:102230004A815B81C953D140CA01B9010E9408C0DB
:102240009B01AC01C501B4010E9405B50E94E1B734
:102250004B015C012FE632E143E85AE30E94A3BF41
:1022600087FD64C2C501B4010E94B0B60E9481B668
:10227000CF5CDE4F79836883C153D140672B41F433
:1022800021E030E0CF5CDE4F39832883C153D14059
:10229000CF5CDE4F88809980C153D140B40180E08B
:1022A00090E00E94A7BF4B015C019B01AC01C701FC
:1022B000B6010E940AB6C75DDE4F688379838A83C0
:1022C0009B83C952D140A5019401C75CDE4F688150
:1022D00079818A819B81C953D1400E940AB6C35B30
:1022E000DE4F688379838A839B83CD54D140C75B5B
:1022F000DE4F288139814A815B81C954D140C75A58
:10230000DE4F688179818A819B81C955D1400E94C5
:1023100004B5A50194010E940AB6CF5ADE4F688326
:1023200079838A839B83C155D140C75DDE4F288165
:1023300039814A815B81C952D140CA01B9010E94E9
:1023400008C020E030E040E05FE30E9408C09B014D
:10235000AC0160E070E080E89FE30E9404B5C75CD8
:10236000DE4F688379838A839B83C953D140CB5BDB
:10237000DE4F88809980AA80BB80C554D140898671
:102380009A86AB86BC86C75BDE4F88809980AA8020
:10239000BB80C954D1408D869E86AF86B88A20E026
:1023A00030E040E752E4609137027091380280914A
:1023B000390290913A020E940AB66B017C01609149
:1023C000350270913602072E000C880B990B0E9483
:1023D000A9BF9B01AC01C701B6010E9408C02AE059
:1023E00037ED43E25CE30E9408C0CB5BDE4F6883BD
:1023F00079838A839B83C554D1400E94B8479B014F
:10240000AC0128533F4F4F4F5F4FC75BDE4F2883D0
:1024100039834A835B83C954D140CF5DDE4F488006
:10242000C152D140CE5DDE4F5880C252D140CD5D09
:10243000DE4F6880C352D140CC5DDE4F7880C452FD
:10244000D140D12C22242394312CCF5CDE4F8880C4
:102450009980C153D1402814390409F451C10E9414
:102460005E6D0E94B8478B019C01C75BDE4F888080
:102470009980AA80BB80C954D140081919092A093A
:102480003B0937FD10C09B01AC0128533F4F4F4F14
:102490005F4FC75BDE4F288339834A835B83C95410
:1024A000D1400E945897D39438E13D150CF459C09F
:1024B000C75CDE4F288139814A815B81C953D14095
:1024C000C35DDE4F688179818A819B81CD52D14085
:1024D0000E9408C04B015C01C75DDE4F2881398135
:1024E0004A815B81C952D140B201C3010E9408C038
:1024F000A50194010E9405B57B018C01C75CDE4FEC
:10250000288139814A815B81C953D140B201C3011D
:102510000E9408C04B015C01C75DDE4F28813981F4
:102520004A815B81C952D140C35DDE4F68817981A8
:102530008A819B81CD52D1400E9408C09B01AC0191
:10254000C501B4010E9404B52B013C01C701D801AB
:10255000C35DDE4F88839983AA83BB83CD52D1406C
:1025600066C0B10180E090E00E94A7BFC75DDE4F6A
:10257000288139814A815B81C952D1400E9408C0BB
:102580004B015C010E9407B66B017C01C501B401DF
:102590000E94D6B74B015C01A7019601CF5DDE4FCB
:1025A000688179818A819B81C152D1400E9408C093
:1025B0002B013C01A5019401CB5DDE4F688179813F
:1025C0008A819B81C552D1400E9408C09B01AC0109
:1025D000C301B2010E9405B52B013C01A501940184
:1025E000CF5DDE4F688179818A819B81C152D14064
:1025F0000E9408C04B015C01A7019601CB5DDE4F34
:10260000688179818A819B81C552D1400E9408C02E
:102610009B01AC01C501B4010E9404B5C35DDE4F4E
:10262000688379838A839B83CD52D140D12C9201D8
:10263000A301C35CDE4F688179818A819B81CD5380
:10264000D1400E9405B569837A838B839C83C35DE7
:10265000DE4F288139814A815B81CD52D140CF5BE9
:10266000DE4F688179818A819B81C154D1400E946B
:1026700005B56D837E838F839887C35BDE4F28818A
:1026800039814A815B81CD54D14069857A858B85BA
:102690009C850E9405B569877A878B879C87CF5A6E
:1026A000DE4F288139814A815B81C155D1406D85DA
:1026B0007E858F8598890E9405B56D877E878F8777
:1026C000988BCE0101960E940B9CC090E30CCB5BD3
:1026D000DE4FE880F9800A811B81C554D1409E01FC
:1026E000235F3F4FAE01475F5F4FBE016B5F7F4F80
:1026F000CE0101960E94ED534FEF241A340AA5CE65
:10270000C090E30CCB5BDE4FE880F9800A811B812F
:10271000C554D1402CEF3CE048EF5CE064EF7CE036
:1027200080EF9CE00E94ED530E9402880E941140BD
:1027300010E000E00C949F261092880A10E000E060
:102740000C949F2681E08093880A10E000E00C94AE
:102750009F2685E40E94C93C982E811102C00E94E8
:10276000287046EEA42E42E0B42E5AE5C52E53E161
:10277000D52E68E7E62E6AE0F62E00E010E0812C08
:10278000D5018D915D010E94C93C882309F44EC09A
:10279000F6012081318142815381C35ADE4F288363
:1027A000CD55D140C25ADE4F3883CE55D140C15AA3
:1027B000DE4F4883CF55D140C05ADE4F5883C056B4
:1027C000D1400E94463DD6016D937D938D939C939D
:1027D0001397C35ADE4F2881CD55D140C25ADE4FE0
:1027E0003881CE55D140C15ADE4F4881CF55D140B6
:1027F000C05ADE4F5881C056D14003301105B1F0A8
:102800000E9404B59B01AC01F70160817181828156
:1028100093810E9405B5D7016D937D938D939C9311
:102820001397C8010E943591882483940F5F1F4F2E
:10283000B4E0CB0ED11CE4E0EE0EF11C0430110527
:1028400009F09ECF882031F00E94433F10E000E065
:102850000C949F26992009F407CB20917613309190
:1028600077134091781350917913609166137091AA
:10287000671380916813909169130E9408C00E94A9
:10288000A3B7609318177093191780931A17909332
:102890001B178FB7F8944091181750911917609132
:1028A0001A1770911B174093561350935713609348
:1028B0005813709359138FBF10920817109209176D
:1028C00010920A1710920B1710E000E00C949F264C
:1028D0000E94BE8710E000E00C949F260E94569054
:1028E0000C94731D8EE40E94C93C882309F4BCCA71
:1028F0000E94DC3C182F833008F0EDC0BE016F5FF2
:102900007F4F8AE593E10E940C8889819A81AB818F
:10291000BC8180930C0C90930D0CA0930E0CB09383
:102920000F0C8D819E81AF81B8858093100C9093A0
:10293000110CA093120CB093130C89859A85AB856A
:10294000BC858093140C9093150CA093160CB09337
:10295000170C86E50E94C93C882361F10E94463D20
:10296000412F50E0FA01EC57F54F2081DA01AA0F10
:10297000BB1FAA0FBB1F211104C02091880A22236C
:1029800059F0E1E0F0E0EC0FFD1FEA0FFB1F2081A2
:1029900031814281538103C020E030E0A9018D01E3
:1029A000045F134F0E9405B5D8016D937D938D93FD
:1029B0009C93139786E40E94C93C882359F00E9497
:1029C000463D20E030E0A9010E9497B7181614F4A4
:1029D0000C94AF2680910C0C90910D0CA0910E0CD4
:1029E000B0910F0C89839A83AB83BC838091100CC8
:1029F0009091110CA091120CB091130C8D839E83B9
:102A0000AF83B8878091140C9091150CA091160C8F
:102A1000B091170C89879A87AB87BC878091FC0C93
:102A20009091FD0CA091FE0CB091FF0C8D879E87BC
:102A3000AF87B88B20E030E040E752E46091370286
:102A4000709138028091390290913A020E940AB640
:102A50006B017C018091350290913602BC01990F87
:102A6000880B990B0E94A9BF9B01AC01C701B6015D
:102A70000E9408C02AE037ED43E25CE30E9408C0F0
:102A8000C090E30C7B018C019E01235F3F4FAE01A0
:102A9000475F5F4FBE016B5F7F4FCE0101960E9483
:102AA000ED5389849A84AB84BC84CD80DE80EF8032
:102AB000F88409811A812B813C8148EF5CE064EF46
:102AC0007CE080EF9CE00E94329F0E94028810E030
:102AD00000E00C949F26833009F0C6C986E50E9469
:102AE000C93C882309F4C0C90E94463D6B017C01A2
:102AF00086E40E94C93C81110E94183D80914713D1
:102B0000823060F0C701B6010E947BB68BE897E186
:102B10000E948E7610E000E00C949F2640E0C701F2
:102B2000B6010E94D86B10E000E00C949F260E9432
:102B300028700E94114010E000E00C949F26109134
:102B4000880A81E08093880A0E94DD8C882381F0C6
:102B50001F928F9381E896E09F938F937F926F925D
:102B60000E9498B90F900F900F900F900F900F90B8
:102B70001093880A0C944F280F32B1E01B0709F418
:102B800070C708F01EC10E36110509F4D6C308F04F
:102B900084C00235110509F449C608F04BC00F3155
:102BA000110509F474C2A8F40530110509F44EC2E8
:102BB00030F40330110509F42CC20C94FB260131CA
:102BC000110509F456C20231110509F43CC60C94F2
:102BD000FB260C34110509F488C378F40A32110578
:102BE00009F43FC30B34110511F00C94FB260E942D
:102BF000B59510E000E00C949F260D34110509F402
:102C000090C30135110511F00C94FB260E94BAA265
:102C10000E9428700E943B971092180F1092170F75
:102C200068EE73E080E090E00E94804710E000E0F2
:102C30000C949F260836110509F479C3A8F40435CD
:102C4000110509F400C608F4F7C50535110509F4A6
:102C500035C60C35110511F00C94FB260E94EC3A98
:102C600010E000E00C949F260B36110509F4CAC54C
:102C700050F40936110509F495C30A36110509F413
:102C800099C50C94FB260C36110509F462C30D3668
:102C9000110509F4A4C30C94FB26093C110509F4A1
:102CA0003EC608F041C00537110511F40C944028C8
:102CB000A8F40037110509F452C308F444C30237DD
:102CC000110509F418C60337110511F00C94FB2601
:102CD0000E94963810E000E00C949F2609371105F9
:102CE00009F40FC690F40737110509F412C6083726
:102CF000110511F00C94FB2681E080930A02809369
:102D00003E0F10E000E00C949F260C38110509F4EA
:102D100030C3083C110511F00C94FB260E944C387E
:102D200010E000E00C949F260D3D110509F481C6CA
:102D300018F50D3C110509F416C678F40B3C110585
:102D400009F4F3C50C3C110511F00C94FB260E940C
:102D50007E3710E000E00C949F260E3C110509F42C
:102D600062C60C3D110511F00C94FB260E947437CD
:102D700010E000E00C949F260C32F1E01F0709F4EC
:102D800064C678F4023E110509F459C608311140B1
:102D900011F00C94FB260E94193610E000E00C9410
:102DA0009F260D3241E0140709F455C60E3211403A
:102DB00011F00C94FB260E94AE3410E000E00C945D
:102DC0009F260C3A88E0180709F4EDC608F099C070
:102DD000033EA7E01A0709F465C608F04AC0053F9C
:102DE000E1E01E0709F449C6E8F40A3921E01207B8
:102DF00009F4B9C258F40039114011F00C94FB26C3
:102E00000E94287010E000E00C949F260C3A51E0DC
:102E1000150709F42CC6043F114011F40C94402806
:102E20000C94FB260B3893E0190711F40C944028FE
:102E300080F4063FB1E01B0709F428C6073F1140A4
:102E400011F00C94FB260E948D3010E000E00C94F1
:102E50009F26073EF3E01F0709F41EC6003D1740FA
:102E600011F00C94FB260E94C96B10E000E00C945A
:102E70009F260A3938E0130709F42CC608F50A34EE
:102E800058E0150709F414C658F40834184011F036
:102E90000C94FB260E944A6910E000E00C949F26E7
:102EA0000839A8E01A0709F409C60939184011F0D1
:102EB0000C94FB260E94156910E000E00C949F26FC
:102EC000033AE8E01E0709F420C680F40B3928E035
:102ED000120709F405C6023A184011F00C94FB26BB
:102EE0000E947B6810E000E00C949F26043A48E0C2
:102EF000140709F40EC6053A184009F43CC60C94B0
:102F0000FB260D3F88E0180711F40C946B20A0F508
:102F1000093BA8E01A0709F444C790F40E3AE8E028
:102F20001E0709F4E7C608F495C6073B28E0120718
:102F300009F40DC7083B184009F41EC70C94FB2682
:102F4000013C48E0140709F482C758F40A3B88E0C2
:102F5000180709F434C7003C184009F455C70C940D
:102F6000FB26053CA8E01A0709F494C70C3F18405B
:102F700009F4FBC70C94FB260330E9E01E0711F4AB
:102F80000C942B2228F5011529E0120711F40C945A
:102F90001B2188F40E3F48E0140711F40C94D9204B
:102FA0000F3F184011F00C94FB260E94196710E0A7
:102FB00000E00C949F26013089E0180711F40C946E
:102FC0003A210230194011F40C94DA210C94FB26BA
:102FD0000A36A9E01A0711F40C94D42368F40036D9
:102FE000E9E01E0711F40C9460220136194011F437
:102FF0000C9401230C94FB260B3629E0120711F4E4
:103000000C945F24043C194011F40C9481240C941A
:10301000FB268091481390914913019711F00C946D
:10302000340F0E94287086E50E94C93C882321F055
:103030000E94DC3C809301026091010270E088E014
:103040000E949A4610E000E00C949F26809148135D
:1030500090914913019711F00C94340F0E9428703D
:1030600060E070E088E00E949A4610E000E00C9476
:103070009F260E944C9768EE73E080E090E00E94EB
:1030800080470E94D26A10E000E00C949F26809155
:10309000AC179091AD17019719F40E94B84708C07A
:1030A0006091B6177091B7178091B8179091B917C2
:1030B0000091B2171091B3172091B4173091B51742
:1030C000601B710B820B930B28EE33E040E050E065
:1030D0000E94F3C58091AE179091AF17A091B017E1
:1030E000B091B117BC01CD01620F731F841F951FF2
:1030F0002CE3C22ED12CE12CF12CA70196010E94C9
:10310000F3C5762E672ECA01B901A70196010E9468
:10311000F3C56B017C01CA01B90128E130E040E050
:1031200050E00E94F3C54B015C01C9016DE671E0FE
:103130000E94C6B48E010F5F1F4F6115710599F093
:103140006F927F92DF92CF929F928F929F938F93F5
:103150007F936F9384E492E09F938F931F930F93D9
:103160000E9474BF26C0009789F06F927F92DF9211
:10317000CF929F928F929F938F9384E392E09F933D
:103180008F931F930F930E9474BF13C081149104F7
:10319000A104B104C1F06F927F92DF92CF929F920F
:1031A0008F9288E292E09F938F931F930F930E94D8
:1031B00074BF0FB6F894DEBF0FBECDBF9DECE92EF5
:1031C00093E0F92E23C0C114D104E104F10469F0A5
:1031D0006F927F92DF92CF9280E292E09F938F93E3
:1031E0001F930F930E9474BFE4CF6F927F928CE184
:1031F00092E09F938F931F930F930E9474BF0F9041
:103200000F900F900F900F900F90D8CFF7018491EF
:10321000882349F0082E000C990B0E94CB92FFEFF7
:10322000EF1AFF0AF3CF88E5E82E82E0F82EF701C7
:103230008491882349F0082E000C990B0E94CB92B0
:10324000FFEFEF1AFF0AF3CFC8010E943F948AE014
:1032500090E00E94CB920E94E53F10E000E00C94C9
:103260009F2683E50E94C93C882311F40C94340FF7
:103270000E94183D7C018F3F910519F010F00C94CD
:10328000340F80E50E94C93C882339F00E94183D24
:103290008C0197FF04C00C94340F02E010E0E6E9C3
:1032A000F2E0819191910817190711F40C94340FF1
:1032B00022E0E63EF207A9F761E0802F0E945E4619
:1032C0006E2D802F0E948D45B701802F0E949A4657
:1032D0000830110511F00C944328F092180FE09279
:1032E000170F10E000E00C949F268091AC1790918E
:1032F000AD17019711F00C94340F82E090E0909399
:10330000AD178093AC170E94B8476093B6177093BF
:10331000B7178093B8179093B91710E000E00C949A
:103320009F260E94B29210E000E00C949F260E941B
:10333000C59110E000E00C949F260E94578710E092
:1033400000E00C949F260E94DE8610E000E00C94C2
:103350009F2610924E0210E000E00C949F2685E616
:1033600092E00E9489A40E949B3010E000E00C943F
:103370009F268091190F83FF02C00C94340F83E5C0
:103380000E94C93C882311F40C94340F0E94463DDE
:103390000E947BB67093BC176093BB1710E000E0EF
:1033A0000C949F2689E690E00E94869181110C94EE
:1033B0005F280EE612E0F8018491882341F0082E80
:1033C000000C990B0E94CB920F5F1F4FF4CF0E940D
:1033D00070878AE090E00E94CB920C945F288DE683
:1033E00090E00E94869181110C94340F8091190F06
:1033F00083FF02C00C94340F83E50E94C93CC35D77
:10340000DE4F8883CD52D140811105C082E50E94F4
:10341000C93C8823C1F00E94463D0E947BB6709350
:10342000CA0E6093C90E0E94CC490E94463D20E01E
:1034300030E04AEA52E40E94A3BF181614F40C9438
:10344000BB260E94B29286E40E94C93C80937F13FF
:10345000882351F00E94463D6093790270937A026E
:1034600080937B0290937C0283E50E94C93C882371
:1034700051F00E94463D60937D0270937E028093DE
:103480007F029093800282E40E94C93C882351F01D
:103490000E94463D60937502709376028093770296
:1034A0009093780281E080934E02CB5DDE4F1882CC
:1034B00019821A821B82C552D140C75DDE4F188225
:1034C00019821A821B82C952D140CF5DDE4F188209
:1034D000C152D140CF5CDE4F1882C153D140FCE3D2
:1034E000C75CDE4FF883C953D1402CE1C35CDE4F8B
:1034F0002883CD53D14036E4CF5BDE4F3883C154AF
:10350000D140C12CD12CA0E8EA2EBFEBFB2E812CA0
:10351000912C54016091C90E7091CA0E072E000CB7
:10352000880B990B0E94A9BF162F072F782E692EA2
:10353000262F372F482F592FB601C7010E94A3BF4E
:10354000882309F12091CB0E3091CC0E4091CD0E05
:103550005091CE0E612F702F872D962D0E94A3BF04
:10356000881F8827881FCF5DDE4F8883C152D140D6
:10357000C35DDE4F4881CD52D140442341F08823C2
:1035800031F00C94340F1C2D0D2D7E2C6F2C0E94CD
:10359000B8476B017C01DC01CB01C75DDE4F2881A0
:1035A00039814A815B81C952D140821B930BA40BA4
:1035B000B50BB7FD52C0D701C60188519C4FAF4F24
:1035C000BF4FC75DDE4F88839983AA83BB83C952EF
:1035D000D1400E947087F4E74F2EF2E05F2EF20197
:1035E0008491882349F0082E000C990B0E94CB92FD
:1035F0009FEF491A590AF3CF81149104A104B10431
:10360000D9F0D501C4018053984FAF4FBF4FBC01D3
:10361000CD016C197D098E099F0928EE33E040E049
:1036200050E00E94F3C5CA01B9010E9413938AE0D9
:1036300090E00E94CB9211C0E1E74E2EE2E05E2EB8
:10364000F2018491882349F0082E000C990B0E9406
:10365000CB92FFEF4F1A5F0AF3CF0E9458970E9458
:1036600011402090CB0E3090CC0E4090CD0E50905B
:10367000CE0E9101A201612F702F872D962D0E94F1
:1036800004B59F7781149104A104B10449F420E0AA
:1036900030E040E85FE30E94A3BF87FF0BC008C093
:1036A00020E030E040EA50E40E9497B7181614F486
:1036B00046015701CF5DDE4FF881C152D140FF2353
:1036C00009F459C0CB5DDE4F288139814A815B8185
:1036D000C552D140211531054105510541F0D701B1
:1036E000C601821B930BA40BB50BB7FD44C091011F
:1036F000A201CF5CDE4F6881C153D140C75CDE4F71
:103700007881C953D140C35CDE4F8881CD53D1400D
:10371000CF5BDE4F9881C154D1400E9404B520E0B8
:1037200030E040EC5FE30E94A3BF87FF02C00C942F
:10373000340FD701C601805A9541AF4FBF4FCB5DC3
:10374000DE4F88839983AA83BB83C552D140CF5C67
:10375000DE4F2882C153D140C75CDE4F3882C95347
:10376000D140C35CDE4F4882CD53D140CF5BDE4FAA
:103770005882C154D14080914E02882311F40C9498
:10378000252681149104A104B10429F4C12ED02E60
:10379000E72CF62CBFCE90EDC91A97E0D90AE108C4
:1037A000F108C818D908EA08FB08F7FC02C00C9415
:1037B0002526ECCF83E50E94C93C882321F00E9496
:1037C0000B3D8C0102C00FEF10E080E50E94C93C68
:1037D000882319F00E940B3D02C080E090E0980120
:1037E0000F3F110519F010F02FEF30E0892B11F089
:1037F0000C94340F3093180F2093170F10E000E053
:103800000C949F2680E50E94C93C811108C010924B
:10381000180F1092170F10E000E00C949F260E94E2
:103820000B3D892B11F00C94340FF1CF1092870AC5
:1038300010E000E00C949F2681E08093870A10E05E
:1038400000E00C949F2683E50E94C93C8823B1F0D8
:103850000E94463D20E030E04AE754E40E9408C060
:103860000E9481B6609381027093820280938302EA
:103870009093840210E000E00C949F2688E50E945B
:10388000C93C81110C94742689E50E94C93C8111C0
:103890000C9474268AE50E94C93C81110C9474260C
:1038A00085E40E94C93C81110C9474260E94287002
:1038B0000E943B9710E000E00C949F2683E50E9455
:1038C000C93C882311F40C94340F0E94463D20E03B
:1038D00030E04AE754E40E9408C00E9481B6609339
:1038E000841370938513809386139093871310E04D
:1038F00000E00C949F260E94A83810E000E00C9491
:103900009F2610920A0210923E0F10E000E00C94E5
:103910009F260E943A6010E000E00C949F260E94CF
:10392000293810E000E00C949F266BEFE62E6EE045
:10393000F62E06EE12E074E0D72ED00ED8018D914F
:103940008D010E94C93C882339F00E94463DF70151
:103950006083718382839383F4E0EF0EF11CD012B5
:10396000EDCF0C94340F83E50E94C93C882351F0BD
:103970000E94463D6093130F7093140F8093150FB0
:103980009093160F84E50E94C93C882351F00E9451
:10399000463D60930F0F7093100F8093110F90931B
:1039A000120F82E40E94C93C882351F00E94253DF9
:1039B00060930B0F70930C0F80930D0F90930E0F6D
:1039C00088E50E94C93C882351F00E94463D6093DF
:1039D0003B0C70933C0C80933D0C90933E0C8AE51D
:1039E0000E94C93C882351F00E94463D6093370CE9
:1039F0007093380C8093390C90933A0C85E40E94B4
:103A0000C93C882311F40C94340F0E94463D609306
:103A1000F30E7093F40E8093F50E9093F60E10E073
:103A200000E00C949F260E94973A10E000E00C946E
:103A30009F260E945B3710E000E00C949F260E94B6
:103A4000083710E000E00C949F260E94F23510E049
:103A500000E00C949F260E941F3510E000E00C94BB
:103A60009F260E94073110E000E00C949F260E94E0
:103A70007A3910E000E00C949F260E94CD6380E02C
:103A80000E949B6010E000E00C949F260E94CD6392
:103A900010E000E00C949F260E947E3010E000E0D1
:103AA0000C949F260E943B9710E000E00C949F2608
:103AB0000E943C6910E000E00C949F268091E20C8B
:103AC000882321F063E976E00C94112666E976E01C
:103AD0000C9411260E94E56810E000E00C949F26EB
:103AE000C3010E94AB68182F01E0CB5CDE4F8881D8
:103AF0009981AA81BB81C553D140892B8A2B8B2BFD
:103B000011F40C944A260C943426C3010E941B68BD
:103B1000EACF8EE40E94C93C882311F40C94340F40
:103B20000E940B3DF82E81E40E94C93C882311F4C9
:103B30000C94340F0E940B3D6C0184E50E94C93C3B
:103B4000882311F40C94340F0E940B3DE82E86E577
:103B50000E94C93C882311F40C94340F0E94463D06
:103B60008B019C014E2DB6018F2D0E94C67D10E069
:103B700000E00C949F2686E50E94C93C882311F43E
:103B80000C94340F0E940B3D892B31F010921816C3
:103B900010E000E00C949F2681E08093181610E05E
:103BA00000E00C949F2688E50E94C93C882309F414
:103BB000B0C70E94463DCF5FDE4F688379838A831A
:103BC0009B83C150D14089E50E94C93C882309F4F8
:103BD000BCC00E94463DCB5FDE4F688379838A83F9
:103BE0009B83C550D1408AE50E94C93C882309F4D3
:103BF000ACC00E94463DC75FDE4F688379838A83ED
:103C00009B83C950D140BE016F5F7F4FCE018F5F54
:103C10009E4F0E940C8881111BC08C858F938B85D1
:103C20008F938A858F9389858F9388858F938F81D2
:103C30008F938E818F938D818F938C818F938B81C6
:103C40008F938A818F9389818F9389E996E046C00B
:103C500016E14ACF82E40E94C93C882309F459C77F
:103C60000E94463D1B012C018CE40E94C93C882324
:103C700009F46BC00E94463D6B017C0182E50E9405
:103C8000C93C882309F461C00E94463D4B015C0198
:103C900092018101AE01475F5F4FBE016B5F7F4FB5
:103CA000CE0101960E94329F8C858F938B858F93D6
:103CB0008A858F9389858F9388858F938F818F9342
:103CC0008E818F938D818F938C818F938B818F9336
:103CD0008A818F9389818F9385EA96E09F938F9352
:103CE0007F926F920E9425770FB6F894DEBF0FBEC9
:103CF000CDBF56C56E0151E0C50ED51E4AEEE42E6D
:103D000042E0F42E860153E0B52EBE0CD7018D9112
:103D10007D010E94C93C8823C1F00E94463DF60106
:103D200061937193819391936F01BE10EFCF83E5FF
:103D30000E94C93C882311F40C94BF260E94DC3CED
:103D400081110C94F4260C94BF2615E1CDCE86E5A6
:103D50000E94C93C882311F40C94340F0E94DC3C6F
:103D6000882329F00E94B37B10E000E0E8C70E949E
:103D7000A17B10E000E0E3C786E50E94C93C8823F0
:103D800011F40C94340F0E94DC3C882329F00E942B
:103D90009F7B10E000E0D3C70E949D7B10E000E015
:103DA000CEC700E010E0980141E068EE73E080E0EB
:103DB0000E94C67D1092B50C10E000E0C0C786E5F9
:103DC0000E94C93C882311F40C94340F0E94DC3CFF
:103DD00091E0811190E090931C16992311F40C94BA
:103DE000340F8FEC95E10E94A92F8091CA168111A2
:103DF00006C086E295E19093C9168093C81610928A
:103E0000191610E000E09BC78EE40E94C93C88238D
:103E100011F40C94340F0E94DC3C182F86E50E94AC
:103E2000C93C882311F40C94340F0E94DC3C882395
:103E300039F061E0812F0E948D4510E000E07FC7DE
:103E400060E0812F0E948D4510E000E078C78EE48D
:103E50000E94C93C882311F40C94340F0E94DC3C6E
:103E6000182F86E50E94C93C882311F40C94340F66
:103E70000E94DC3C882339F061E0812F0E945E467D
:103E800010E000E05CC760E0812F0E945E4610E019
:103E900000E055C78E010F5F1E4F8CE0D8011D92C8
:103EA0008A95E9F786E50E94C93C882309F453C046
:103EB0006BE070E0C8010E94303DF80101900020E5
:103EC000E9F73197E01BF10B09F448C03C9714F077
:103ED000F8011386629942C061EB76E086E295E1D3
:103EE0000E94E5A0B80186E295E10E94E5A064E6A3
:103EF00070E080E090E00E94804769EB76E086E227
:103F000095E10E94E5A064E670E080E090E00E9408
:103F100080478E010F5F1F4F68017601E01AF10A9A
:103F200086E295E10E948E42892B41F086E295E17E
:103F30000E946C42D6018D936D01EFCFF801EE0D1A
:103F4000FF1D108267EC76E0C8010E947EB9892BC4
:103F500009F026C403C06FEC76E002C06DED76E098
:103F6000C3010E9468B919E1BFCD8EE40E94C93C2B
:103F7000882311F40C94340F0E94DC3C082F84E455
:103F80000E94C93C882321F00E94DC3C182F01C00C
:103F900010E081E40E94C93C882319F00E94DC3CB7
:103FA000182F89E40E94C93C882319F00E94DC3C48
:103FB000182F802F90E0FC013A97E830F10510F0BF
:103FC0000C9446288827EE58FF4F8F4F0C94EDB481
:103FD0008BEC96E10E948341882379F020E030E069
:103FE000A9016CE08BEC96E10E9466418BEC96E1B6
:103FF0000E94C69D10E000E0A2C68FEE96E00E94EF
:10400000164F10E000E09BC60E94F15F10E000E058
:1040100096C688EF810F823048F4812F90E090930C
:10402000ED168093EC1610E000E089C688E090E081
:104030009093ED168093EC1610E000E080C688EFB8
:10404000810F823048F4812F90E09093DF168093A7
:10405000DE1610E000E073C688E090E09093DF1673
:104060008093DE1610E000E06AC688EF810F823090
:1040700048F4812F90E09093DD168093DC1610E0D9
:1040800000E05DC688E090E09093DD168093DC163A
:1040900010E000E054C60E949B9D10E000E04FC677
:1040A00088EF810F823048F4812F90E09093DB16E7
:1040B0008093DA1610E000E042C688E090E090932A
:1040C000DF168093DE1610E000E039C60E948049BA
:1040D00010E000E034C68EE40E94C93C882311F44D
:1040E0000C94340F0E94DC3C182F86E50E94C93CDA
:1040F000882311F40C94340F0E940B3DAC0160E056
:1041000070E04115510561057105F1F4112311F4B9
:104110000C94340FE9E4FCE080E090E0208121136E
:104120000CC02BE0289FF001299FF00D1124E95BC2
:10413000F34F128210E000E002C601963B968A30EF
:10414000910561F70C94340F1C3019F168F41A30A2
:10415000C1F01B3009F09DC726E43AE78BE00E94CE
:104160001E2F10E000E0EBC51F30D9F0103109F030
:1041700090C72AEC38E780E10E941E2F10E000E093
:10418000DEC528EB39E78AE00E941E2F10E000E030
:10419000D6C52CE639E78CE00E941E2F10E000E027
:1041A000CEC526E139E78FE00E941E2F10E000E027
:1041B000C6C58EE40E94C93C882311F40C94340FC8
:1041C0000E94DC3CF82E86E50E94C93C882311F44D
:1041D0000C94340F0E940B3D8C01BDE0FB1621F0C6
:1041E000EEE0FE1679F058C761E08091DE160E947D
:1041F0005E46B80177278091DE160E949A4610E04D
:1042000000E09DC561E08091DC16012B51F00E9419
:104210005E4661E08091DC160E948D4510E000E072
:104220008EC50E945E4660E08091DC160E948D453E
:1042300010E000E084C580E50E94C93C8823B9F005
:104240000E94DC3C8E3008F02AC7082F10E0000FD7
:10425000111F08501C4ED8018D919C91009709F4B4
:104260001EC70E947CBAF8011182108218C76CE147
:1042700077E021C180E50E94C93C882309F497C0FA
:104280000E94DC3CF82E8EE40E94C93C882309F48D
:104290008EC00E94DC3CE82E8E010F5F1F4F8CE029
:1042A000D8011D928A95E9F7BDE0BF1530F41F9241
:1042B0008EE08F938FE297E00AC08E2D90E08631DA
:1042C000910594F01F9286E18F938EE497E09F937F
:1042D0008F937F926F920E9498B90F900F900F90DA
:1042E0000F900F900F903FCE880F991FFC01EA5F4F
:1042F000FB4FC080D1802F2D30E081E090E00F2C6B
:1043000002C0880F991F0A94E2F78C219D21892B06
:10431000D9F51F92EF928FE697E09F938F937F924C
:104320006F920E9498B90F900F900F900F900F907E
:104330000F90E12CF12CAA24A394B12CC5010E2CD2
:1043400002C0880F991F0A94E2F78C219D21892BC6
:1043500071F04AE0B801C7010E9422BFB801C30151
:104360000E9449B964E977E0C3010E9449B9EFEFBF
:10437000EE1AFE0AFEE0EF16F10401F76CE677E0B4
:10438000C3010E9449B9EFCD8901000F111F9801A7
:1043900028503C4E6901D9018D919C91009709F4F8
:1043A0005BC50E947CBAF6011182108255C56FEB85
:1043B00077E081C080E50E94C93C882309F448C0A9
:1043C0000E94DC3C182F86E50E94C93C882309F432
:1043D0003FC00E940B3DAC0160E070E01E3030F049
:1043E0001F928EE08F938FE297E04DC0212F30E037
:1043F000F901EE0FFF1FE850FC4E80819181892B5F
:1044000019F41F921F933DC0E3E0220F331FEA957A
:10441000E1F7411551056105710541F4F901E857CE
:10442000FC4E108211821282138239C6890108570C
:104430001C4EF80140835183628373830E94B84706
:10444000D80114966D937D938D939C93179727C6EF
:104450006FEE77E030C080E50E94C93C882349F1C7
:104460000E94DC3C8E3008F0BBCFE82FF0E0EE0F6E
:10447000FF1FE850FC4EA081B181109789F41F9274
:104480008F9385ED97E09F938F937F926F920E9419
:1044900098B90F900F900F900F900F900F900EC043
:1044A000ED91FC9111970480F581E02DCD011995D6
:1044B000F6C565E078E0C3010E9468B919E1F2C36E
:1044C00083E50E94C93C882311F40C94340F0E94A8
:1044D000DC3C182F282F30E0243031050CF08CC044
:1044E00030934913209348138230B1F0833091F117
:1044F000813009F040C08DEC9CECA0E8B2E48093E0
:10450000330C9093340CA093350CB093360C86EF9B
:1045100098E2ACE4B2E43FC080E090E0A2E6B2E40E
:104520008093330C9093340CA093350CB093360CDD
:1045300089E29CEDA4E9B2E480932F0C9093300CB7
:10454000A093310CB093320C91E090932D0C90938A
:104550002E0C2DC080E090E0ABE8B2E48093330CE9
:104560009093340CA093350CB093360C89E29CEDFB
:10457000A4E9B2E410C08AE999E9A2E6B2E4809322
:10458000330C9093340CA093350CB093360C8AE91D
:1045900099E1A5E9B2E480932F0C9093300CA0939D
:1045A000310CB093320C10922D0C10922E0CC901CC
:1045B0000E943FA0612F70E080E090E00E94A7BFC2
:1045C0008B019C0141E064E873E080E00E94C67DBD
:1045D00060912F0C7091300C8091310C9091320CC5
:1045E0000E9432A06091330C7091340C8091350C94
:1045F0009091360C0E9425A00E94D26A10E000E043
:104600009EC30E94279F882309F4CCC086E50E94A0
:10461000C93C882309F457C00E940B3D8D3E984544
:1046200009F0A1CCFE0131967F0110E0812F0E949C
:104630002C7CD7018D939D937D018130904108F0B2
:1046400092CC1F5F133091F769817A8170932E02AB
:1046500060932D028B819C819093300280932F0276
:104660008D819E81909332028093310280E090E0B0
:104670000E94A7BF8B019C0142E060E273E080E0F2
:104680000E94C67D60912F027091300280E090E020
:104690000E94A7BF8B019C0142E062E273E080E0D0
:1046A0000E94C67D609131027091320280E090E0FC
:1046B0000E94A7BF8B019C0142E064E273E080E0AE
:1046C0000E94C67D66C082E40E94C93C882309F42A
:1046D0004ACCFE0131967F0110E0812F0E942C7C94
:1046E000D7018D939D937D018130904108F03BCCA3
:1046F0001F5F133091F769817A8170932E02609366
:104700002D028B819C819093300280932F028D81AA
:104710009E81909332028093310280E090E00E946B
:10472000A7BF8B019C0142E064E373E080E00E943C
:10473000C67D60912F027091300280E090E00E946F
:10474000A7BF8B019C0142E066E373E080E00E941A
:10475000C67D609131027091320280E090E00E944B
:10476000A7BF8B019C0142E068E373E080E00E94F8
:10477000C67D00E010E02BE333E441E062E373E048
:1047800080E00E94C67D8BE092E090932C028093A3
:104790002B020E94D26A6EE677E0C3010E9468B9DC
:1047A00010E0A2C918E1A0C983E50E94C93C882392
:1047B00019F00E94463D62C00E94279F882309F499
:1047C00060C00E94279F811105C088E198E00E9487
:1047D000164F4CC0FE0131967F0110E0812F0E94E0
:1047E000A67DD7016D937D938D939D937D011F5F72
:1047F0001330A1F726EE3EE245E652E46D817E815C
:104800008F8198850E940AB60E94D6B76B017C0101
:1048100026EE3EE245E652E469857A858B859C85E5
:104820000E940AB60E94D6B74B015C012CEE31E122
:104830004EE053E4C701B6010E9408C06B017C0141
:104840002CE53FEC4EE153E4C501B4010E9408C0E1
:104850009B01AC01C701B6010E9404B523E333E319
:1048600045ED52E40E9405B56B017C012AE939E966
:1048700049E95EE3C701B6010E9405B56B017C0101
:1048800003C0C12CD12C76010E94279F882311F4EC
:104890000C94340FC0922F0CD092300CE092310C5B
:1048A000F092320CC701B6010E9432A0C701B601D6
:1048B0000E9432A00E94D26A10E000E040C283E56C
:1048C0000E94C93C882311F40C94340F0E94463D89
:1048D0006B017C010E94279F882311F40C94340FF4
:1048E000C092330CD092340CE092350CF092360C1E
:1048F000C701B6010E9425A00E94D26A10E000E024
:104900001EC20E949D9C89E894E10E94449480917B
:10491000CA1681110C94340F89E894E19093C9165A
:104920008093C81610E000E00AC2F8018491882341
:1049300041F0082E000C990B0E94CB920F5F1F4F85
:10494000F4CF08E712E0F8018491882341F0082EA3
:10495000000C990B0E94CB920F5F1F4FF4CF8091F8
:10496000E30C90E00E9443938AE090E00E94CB9297
:1049700010E000E0E4C10D3AF8E01F0709F4DFC0E1
:1049800008F04EC00B3938E0130709F4B3C088F4BF
:10499000093958E0150709F49FC008F0A0C008398C
:1049A000184009F028C2AE014F5F5F4F7A0110E056
:1049B0006CC00D39A8E01A0709F4A3C008F49AC026
:1049C0000E39E8E01E0709F49FC00C3A184009F0C0
:1049D00012C2809165138F93809164138F9380919D
:1049E00063138F93809162138F93809161138F93E0
:1049F000809160138F9380915F138F9380915E13EA
:104A00008F9380915D138F9380915C138F9380912E
:104A10005B138F9380915A138F9385EA96E0ADC014
:104A2000003C28E0120709F4BBC0C8F4083B48E08A
:104A3000140709F4A9C038F4073B184009F0DBC19A
:104A40000E94B57DA3C0093B98E0190709F4A0C0F6
:104A50000A3B184009F0CFC10E94279F97C0023C33
:104A6000B8E01B0709F4B3C008F4A5C0053CF8E0A2
:104A70001F0709F4D4C00036194009F0BCC1809169
:104A800049138F9380914813D0C0812F0E94A67D37
:104A9000D7016D937D938D939D937D011F5F13309F
:104AA000A1F78C858F938B858F938A858F938985CA
:104AB0008F9388858F938F818F938E818F938D8134
:104AC0008F938C818F938B818F938A818F93898130
:104AD0008F9389E996E051C08CE298E00DC08091F7
:104AE00047131F928F9389E398E09F938F938DE3F1
:104AF00098E01EC084E498E09F938F9385E398E04C
:104B000097C085EB9CE0F8CF8EE40E94C93C8111F0
:104B100002C015E1C7C00E94DC3C843008F0C1C06F
:104B20000E94A67D9F938F937F936F938AE498E072
:104B30009F938F937F926F920E9425776AC0CE01D8
:104B400001960E944A958C858F938B858F938A85D9
:104B50008F9389858F9388858F938F818F938E8193
:104B60008F938D818F938C818F938B818F938A818B
:104B70008F9389818F9380E598E09F938F937F92A5
:104B80006F920E94257745C00E94907B1F924DC076
:104B900082B386958695869591E089278170F6CFB8
:104BA0008EE40E94C93C882309F4B3CF0E94DC3C08
:104BB0000E9465450AC08EE40E94C93C882309F41E
:104BC000A8CF0E94DC3C0E9461479F932EC0FE014B
:104BD00031967F0110E0812F0E942C7CD7018D93AC
:104BE0009D937D011F5F1330B1F78E818F938D816F
:104BF0008F938C818F938B818F938A818F938981FF
:104C00008F9380E698E09F938F937F926F920E949C
:104C100025770FB6F894DEBF0FBECDBF40C26EE65B
:104C200077E0C3010E9468B93AC28F938CE598E09F
:104C30009F938F937F926F920E9425770F900F9092
:104C40000F900F900F900F902AC2CB5CDE4F8880A0
:104C50009980AA80BB80C553D14089288A288B2897
:104C600009F47AC000E010E08CE698E00E943F94DE
:104C70004AE0CB5CDE4F688179818A819B81C55394
:104C8000D1400E94D09284E997E00E943F94002393
:104C900009F462C0111113C08EE698E00E943F949F
:104CA00019C016E101E0CB5CDE4F288139814A81D1
:104CB0005B81C553D140232B242B252BA9F687EBF1
:104CC00096E00E943F94612F70E080E090E04AE01F
:104CD0000E94D09284E997E00E943F94CE018F57C2
:104CE0009F4F0E94164FEBC10E94287088E50E94DA
:104CF000C93C882319F05F9810922A0C89E50E941C
:104D0000C93C882319F08A9810922B0C8AE50E94DE
:104D1000C93C882351F09FB7F894809108018E7F99
:104D2000809308019FBF10922C0C85E40E94C93C1F
:104D3000882311F40C94340F129A10E000E0CB5C3D
:104D4000DE4F288139814A815B81C553D140232BB5
:104D5000242B252B09F088CF0E949D9CB0C10E9476
:104D6000463D6093370270933802809339029093E6
:104D70003A020C94EA140E94B5950C94231AF80197
:104D800080819181A281B381CF5EDE4F8883998338
:104D9000AA83BB83C151D14084819581A681B7810B
:104DA000CB5EDE4F88839983AA83BB83C551D140F4
:104DB00080859185A285B385C75EDE4F8883998300
:104DC000AA83BB83C951D140BE016F5F7F4FCE0123
:104DD0008F5E9E4F0E940C88811103C063E976E0CC
:104DE000DCCC66E976E0D9CCB801CE018F5E9E4F6F
:104DF0000E940D90E9CF0DEC13E0F8018491882317
:104E000041F0082E000C990B0E94CB920F5F1F4FB0
:104E1000F4CF0DE812E0F8018491882341F0082EC8
:104E2000000C990B0E94CB920F5F1F4FF4CF809123
:104E30001C0C90911D0C0E943F940AE812E0F801AE
:104E40008491882309F43BC1082E000C990B0E9421
:104E5000CB920F5F1F4FF3CF4E2D50E0FA013197E9
:104E6000E531F10518F064EA77E07AC88827E6585A
:104E7000FF4F8F4F0C94EDB48AE090E00E94E7B9A9
:104E800022EF32E0BBC08BE190E00E94E7B9FC0169
:104E90008EEF92E0918380838FEF858721E030E071
:104EA000318B208B1682158212861186148613860A
:104EB00010861782138A128A158A148A118E108E10
:104EC000178A168A828FD801A850BC4EED93FC93A6
:104ED000B4C085E090E00E94E7B92AE033E098C0D2
:104EE00083E190E00E94E7B926E133E087C085E0E6
:104EF00090E00E94E7B922E233E08AC087E090E0C8
:104F00000E94E7B92EE233E079C086E090E00E948B
:104F1000E7B92AE333E07CC087E090E00E94E7B97C
:104F200026E433E06BC085E090E00E94E7B922E51B
:104F300033E06EC087E090E00E94E7B96C018EE537
:104F400093E0D6018D939C9385E090E00E94E7B9B1
:104F5000FC0110821482138282E090E092838183AC
:104F6000D6011696FC93EE931597F801E850FC4E87
:104F7000D182C08262C085E090E00E94E7B92AE653
:104F800033E046C087E090E00E94E7B926E733E0CF
:104F900035C085E090E00E94E7B922E833E038C0F0
:104FA00085E090E00E94E7B92EE833E027C085E075
:104FB00090E00E94E7B92AE933E02AC085E090E05A
:104FC0000E94E7B926EA33E019C087E290E00E9428
:104FD000E7B927E2FC0111922A95E9F72EEF33E0B9
:104FE0000DC086E090E00E94E7B922EB33E010C0EC
:104FF00085E090E00E94E7B92EEB33E0DC012D93D1
:105000003C9316C085E090E00E94E7B92AEC33E0BB
:10501000FC01318320830CC087E090E00E94E7B957
:1050200026ED33E0DC0111963C932E9316961C92EC
:10503000F801E850FC4E91838083F801E850FC4E63
:1050400080819181009709F40ECFDC01ED91FC91F4
:10505000D801A252BC4F0190F081E02D11962C9105
:1050600011974C916F2D199581119ACB66E977E0D4
:10507000CE018F579F4F0C94B11F10E000E05FCE20
:1050800010E000E05CCE10E000E059CE10E000E05F
:1050900056CE10E000E053CE10E000E050CE10E01D
:1050A00001E0CB5CDE4F88809980AA80BB80C5532D
:1050B000D14089288A288B2809F4EECDD5CDC05A55
:1050C000DE4F0FB6F894DEBF0FBECDBFDF91CF919C
:1050D0001F910F91FF90EF90DF90CF90BF90AF9016
:1050E0009F908F907F906F905F904F903F902F9008
:1050F0000895DC0114968D919C911597DC01ED913A
:10510000FC910680F781E02D1994DC0114968D91B5
:105110009C911597DC01ED91FC910084F185E02DC7
:105120001994DC0114968D919C911597DC01ED91F9
:10513000FC910480F581E02D199400000000089591
:105140001F93CF93DF931F92CDB7DEB718E087FF91
:1051500002C02F9A01C02F98880F8983EEDF2E9A04
:10516000ECDF2E98115089811111F1CF0F90DF9152
:10517000CF911F9108952E98E0DF2F98DEDF2E9AB1
:10518000DCDF2F9ADACFCF93C4B127982F9AD5DFDF
:105190002E9AD3DF1F9B05C02E98EDDFC4B981E0A6
:1051A00003C02E98C4B980E0CF9108952E9AC5DF30
:1051B0002F9AC3DF2F98C1DF2E98BFCF089508958F
:1051C000FC0162834383248350E05683458381E05E
:1051D000089508950895FC0162834383248350E079
:1051E000528B418B81E008950895089508950895A4
:1051F000FC0162834383248381E008950895089528
:105200000895FC0162834383248350E056834583E1
:1052100081E00895089508950895089508950895E2
:10522000FC0162834383248381E0089508950895F7
:1052300008950895CF93DF93EC0186E50E94C93C61
:10524000882361F00E94DC3C882311F061E001C0FA
:1052500060E08C81DF91CF910C948D45DF91CF91EF
:105260000895CF93DF93EC0186E50E94C93C882323
:1052700099F00E94DC3C61E0882329F08D810E9436
:105280005E4661E004C08D810E945E4660E08D81D3
:10529000DF91CF910C948D45DF91CF910895FC0162
:1052A000822F62834383248361E00E945E4681E013
:1052B0000895FC01842F62834383248360E00E946D
:1052C0005E4681E008950F931F93CF93DF93CDB790
:1052D000DEB7C658D1090FB6F894DEBF0FBECDBFFA
:1052E0008C0105960E9480A3F80180858F938781A9
:1052F0008F9386818F9385818F931F928CE08F93FC
:1053000082811F928F931F928BE08F9383E898E0A6
:105310009F938F938E010F5F1F4F1F930F930E94D8
:105320002577B801CE018F579F4F0E942344CE01AD
:105330008F579F4F0E948F69CE018F579F4F0E94BA
:105340001E440FB6F894DEBF0FBECDBFCA57DF4F65
:105350000FB6F894DEBF0FBECDBFDF91CF911F9186
:105360000F910895AF92BF92CF92DF92EF92FF928A
:105370000F931F93CF93DF93CDB7DEB7C658D109F4
:105380000FB6F894DEBF0FBECDBF8C017C0185E067
:10539000E80EF11CC7010E942D40D62EC72EB82E54
:1053A000A92EC7010E945F40AF92BF92CF92DF92B9
:1053B0009F938F937F936F931F928FE08F93F8014A
:1053C00082811F928F931F928BE08F9385E998E0E3
:1053D0009F938F938E010F5F1F4F1F930F930E9418
:1053E0002577B801CE018F579F4F0E942344CE01ED
:1053F0008F579F4F0E948F69CE018F579F4F0E94FA
:105400001E440FB6F894DEBF0FBECDBFCA57DF4FA4
:105410000FB6F894DEBF0FBECDBFDF91CF911F91C5
:105420000F91FF90EF90DF90CF90BF90AF900895D5
:10543000FC016283438324830E949B9D81E0089545
:105440000F931F93CF93DF93CDB7DEB7C658D10923
:105450000FB6F894DEBF0FBECDBF8C01FC01838177
:1054600090E00E94BF7B9F938F931F9288E08F9361
:10547000F80182811F928F931F928BE08F9383E8B4
:1054800098E09F938F938E010F5F1F4F1F930F9391
:105490000E942577B801CE018F579F4F0E94234469
:1054A000CE018F579F4F0E948F69CE018F579F4F1C
:1054B0000E941E440FB6F894DEBF0FBECDBFCA5780
:1054C000DF4F0FB6F894DEBF0FBECDBFDF91CF9197
:1054D0001F910F9108950F931F93CF93DF93CDB733
:1054E000DEB7C658D1090FB6F894DEBF0FBECDBFE8
:1054F0008C01FC01838190E00E94BF7B9F938F937E
:105500001F9285E08F93F80182811F928F931F92E3
:105510008BE08F9383E898E09F938F938E010F5FCA
:105520001F4F1F930F930E942577B801CE018F570D
:105530009F4F0E942344CE018F579F4F0E948F6937
:10554000CE018F579F4F0E941E440FB6F894DEBFC6
:105550000FBECDBFCA57DF4F0FB6F894DEBF0FBEE8
:10556000CDBFDF91CF911F910F9108950F931F939E
:10557000CF93DF93CDB7DEB7C658D1090FB6F894F5
:10558000DEBF0FBECDBF8C01FC0183810E9461474D
:105590009F938F931F9283E08F93F80182811F92D4
:1055A0008F931F928BE08F9383E898E09F938F9364
:1055B0008E010F5F1F4F1F930F930E942577B80135
:1055C000CE018F579F4F0E942344CE018F579F4F8C
:1055D0000E948F69CE018F579F4F0E941E440FB6C5
:1055E000F894DEBF0FBECDBFCA57DF4F0FB6F89499
:1055F000DEBF0FBECDBFDF91CF911F910F910895F8
:105600000F931F93CF93DF93CDB7DEB7C658D10961
:105610000FB6F894DEBF0FBECDBF8C0160E0FC0179
:1056200085810E945E46F80185810E9465459C0146
:1056300033273F932F931F9280E18F93F80182814C
:105640001F928F931F928BE08F9383E898E09F9334
:105650008F938E010F5F1F4F1F930F930E9425772B
:10566000B801CE018F579F4F0E942344CE018F5720
:105670009F4F0E948F69CE018F579F4F0E941E44FB
:105680000FB6F894DEBF0FBECDBFCA57DF4F0FB6BF
:10569000F894DEBF0FBECDBFDF91CF911F910F9168
:1056A00008950F931F93CF93DF93CDB7DEB7C658FE
:1056B000D1090FB6F894DEBF0FBECDBF8C01FC013F
:1056C00083810E94654521E0892B09F020E0F801E3
:1056D00025831F922F931F9282E18F9382811F92C5
:1056E0008F931F928BE08F9383E898E09F938F9323
:1056F0008E010F5F1F4F1F930F930E942577B801F4
:10570000CE018F579F4F0E942344CE018F579F4F4A
:105710000E948F69CE018F579F4F0E941E440FB683
:10572000F894DEBF0FBECDBFCA57DF4F0FB6F89457
:10573000DEBF0FBECDBFDF91CF911F910F910895B6
:105740000F931F93CF93DF93CDB7DEB7C658D10920
:105750000FB6F894DEBF0FBECDBF8C01FC01838174
:105760000E94654521E0892B09F020E01F922F93CC
:105770001F9283E18F93F80182811F928F931F9272
:105780008BE08F9383E898E09F938F938E010F5F58
:105790001F4F1F930F930E942577B801CE018F579B
:1057A0009F4F0E942344CE018F579F4F0E948F69C5
:1057B000CE018F579F4F0E941E440FB6F894DEBF54
:1057C0000FBECDBFCA57DF4F0FB6F894DEBF0FBE76
:1057D000CDBFDF91CF911F910F9108952F923F92EE
:1057E0004F925F926F927F929F92AF92BF92CF92B1
:1057F000DF92EF92FF920F931F93CF93DF93CDB77A
:10580000DEB7C75AD1090FB6F894DEBF0FBECDBFC1
:105810008C019E012F5F3F4F790180E8F9011192C1
:105820008A95E9F76E01F1E8CF0ED11C80E2F6010E
:1058300011928A95E9F7CF55DF4F188219821A82A3
:105840001B82C15AD0408DE40E94C93C882341F09C
:105850000E94DC3C833020F4F80196819813868303
:1058600086E50E94C93C882341F00E94DC3C382E2A
:10587000F7E0F81708F49BC105C0C80105960E941F
:1058800005A495C183E50E94C93C882309F48FC112
:1058900060E470E0C7010E94303D912CF701019057
:1058A0000020E9F73197EE19FF09A92CB12CF695E4
:1058B000E795AE16BF06D0F53501660C771CF701EB
:1058C000E60DF71D808190E00E9431B920ED280F90
:1058D0002A3028F029EC280F203108F02FE0E2E0F0
:1058E000F0E0EC0FFD1FE60DF71D808190E0CB5539
:1058F000DF4F2883C55AD0400E9431B990ED980FF0
:10590000CB55DF4F2881C55AD0409A3028F099EC0A
:10591000980F903108F09FE0F601EA0DFB1D30E191
:10592000239F900D112490839394B8CFF801868122
:10593000813009F465C0C0F0823009F038C10B5FD6
:105940001F4F632DC8010E947D9680E8F7011192D8
:105950008A95E9F7D601589680E022242394312CC9
:1059600093E0492E512CB7C0A12CB12C80E8782EA1
:105970000B5F1F4F99249A94F701272D11922A95B6
:10598000E9F76A2DC8010E947D96F70120E030E01A
:10599000A501440F551F4C0D5D1DD90176E0B5954D
:1059A000A7957A95E1F7A40FB51F6C9170E0C90136
:1059B0008F739927A3E095958795AA95E1F791951F
:1059C00081959109895F02C0759567958A95E2F77F
:1059D00060FF02C0908201C010822F5F3F4F31965E
:1059E00020383105D1F6B701C8010E948D963FEFEE
:1059F000A31AB30A68E0A616B10409F0BDCFD7C058
:105A000071E0731508F4D3C0330C330C5601912C9C
:105A100060E8462E0B5F1F4FF701242D11922A9547
:105A2000E9F7692D630DC8010E947D969701D501A4
:105A30004D9113966C901397F90157E0552E712CE8
:105A400050E0652D70E0CA55DF4F79836883C65AF0
:105A5000D040C301052C02C0959587950A94E2F7C2
:105A600080FD02C080E001C08FE0BA01CA55DF4F5F
:105A70000880C65AD04002C0759567950A94E2F72F
:105A8000CA55DF4F79836883C65AD04060FD02C093
:105A900060E001C06FE070E1879FC0011124862B98
:105AA00080838183828383835A9434968FEF581244
:105AB000C8CF205E3F4F2C153D0509F0B9CFB70187
:105AC000C8010E948D96939498E0A90EB11CE4E061
:105AD0009E12A2CF6CC0F60191916F01CF55DF4F9E
