:100000000C94980B0C94C90B0C94C90B0C94C90B51
:100010000C94C90B0C94C90B0C94C90B0C94C90B10
:100020000C94C90B0C94C90B0C94C90B0C94C90B00
:100030000C94C90B0C94D27D0C94C90B0C94C90B75
:100040000C94C90B0C949F5C0C94C90B0C94C90BB9
:100050000C94C90B0C94C90B0C9414580C94706438
:100060000C94C90B0C940F7D0C94E67C0C94C90B7A
:100070000C94C90B0C94C90B0C94C90B0C94C90BB0
:100080000C940E8C0C94C90B0C94C90B0C94C90BDA
:100090000C94BD7C0C94947C0C94C90B0C94BA64A5
:1000A0000C94C90B0C94C90B0C94E18B0C94C90BE8
:1000B0000C94C90B0C94C90B0C94C90B0C94B48B05
:1000C0000C94C90B0C94C90B0C94C90B0C946B7C4D
:1000D0000C94427C0C94C90B0C94C90B0C94C90B66
:1000E0000C94C90B8920AA2027213D215321692185
:1000F0006E21842130944394849435964A96629676
:10010000F896C797C797B39775588358A258A558BC
:10011000A858AB58AE58B158B458B758BA58BD588B
:10012000C758557B587B477B4B7B517B8F7B5C7BD8
:10013000607B667B6A7B6E7B747B787B7C7B8F7B52
:10014000827B867B8A7B947E997E9E7EA87EB27E11
:100150002B7FBC7EC47ECC7ED67EE07EEA7EF97E9E
:10016000037F2B7F0D7F177F217F084AD73B3BCE34
:10017000016E84BCBFFDC12F3D6C74319ABD5683A6
:100180003DDA3D00C77F11BED9E4BB4C3E916BAA5E
:10019000AABE000000803F072C7AA5BA6CC590DA91
:1001A0003B9365FC8BBC53F810FD3C5692834DBDD0
:1001B000879D3AB63DCBC9BF5BBE73DA0FC93F0519
:1001C000A84CCDB2D44EB93836A9020C50B991869C
:1001D00088083CA6AAAA2ABE000000803F00434F20
:1001E0004D4D554E49434154494F4E00445259528A
:1001F000554E004552524F525300494E464F00450E
:1002000043484F002569730025696D2025697300F7
:100210002569682025696D2025697300256964209A
:100220002569682025696D20256973002569792075
:10023000256964202569682025696D20256973007A
:100240005072696E742074696D653A2000FF01FA7E
:1002500001F301EC01DE016F66660044454255473B
:100260003A004B494C4C45442E20006F6B004649E8
:10027000524D574152455F4E414D453A4D61726C6A
:10028000696E20312E312E302D5243372028476998
:10029000746875622920534F555243455F434F445C
:1002A000455F55524C3A68747470733A2F2F6769E2
:1002B000746875622E636F6D2F4D61726C696E4646
:1002C00069726D776172652F4D61726C696E205035
:1002D000524F544F434F4C5F56455253494F4E3A3D
:1002E000312E30204D414348494E455F54595045C9
:1002F0003A3344205072696E7465722045585452E6
:10030000554445525F434F554E543A312055554957
:10031000443A63656465326132662D343161322D51
:10032000343734382D396231322D63353563363206
:100330006633363766660A007A5F6D696E3A20006A
:10034000795F6D696E3A2000785F6D696E3A2000C2
:100350005265706F7274696E6720656E6473746F36
:1003600070207374617475730A0043290A00616216
:100370006C656420286D696E2074656D7020004383
:100380006F6C642065787472756465732061726542
:10039000200023646566696E65202044454641550A
:1003A0004C545F4B64200023646566696E652020B1
:1003B00044454641554C545F4B69200023646566B3
:1003C000696E65202044454641554C545F4B702072
:1003D00000504944204175746F74756E65206669DC
:1003E0006E69736865642120507574207468652097
:1003F0006C617374204B702C204B6920616E6420FB
:100400004B6420636F6E7374616E74732066726FD9
:100410006D2062656C6F7720696E746F20436F6E1C
:1004200066696775726174696F6E2E680A0050495B
:1004300044204175746F74756E65206661696C65E2
:1004400064212074696D656F75740A0050494420F9
:100450004175746F74756E65206661696C656421A1
:100460002054656D706572617475726520746F6F6C
:1004700020686967680A00204B643A2000204B69B5
:100480003A2000204B703A200020436C617373695E
:100490006320504944200A002054753A2000204B24
:1004A000753A2000206D61783A2000206D696E3A1F
:1004B000200020643A200020626961733A200054D1
:1004C0006F6F206661722066726F6D20726566655F
:1004D00072656E636520706F696E740A000000AF0C
:1004E000C30000AFC30000AFC341637469766520E9
:1004F00045787472756465723A2000220A00556E60
:100500006B6E6F776E20636F6D6D616E643A202243
:10051000004B494C4C45442E2000202D20496E763E
:10052000616C6964206578747275646572206E759B
:100530006D62657220210A002020506C616E6E652C
:100540007242756666657242797465733A2000205E
:1005500046726565204D656D6F72793A20004A617B
:100560006E20313720323031380A00436F6D7069A8
:100570006C65643A2000286E6F6E652C2064656699
:1005800061756C7420636F6E666967290A00207C50
:1005900020417574686F723A2000323031362D3048
:1005A000372D33312031323A303000204C617374B2
:1005B00020557064617465643A200020312E312E1C
:1005C000302D5243370A004D61726C696E00205322
:1005D0006F6674776172652052657365740A0020D6
:1005E0005761746368646F672052657365740A00AD
:1005F0002042726F776E206F757420526573657438
:100600000A002045787465726E616C2052657365CE
:10061000740A00506F77657255700A0073746172C6
:10062000740A00205A3A0020593A0020583A0065CE
:100630006E6473746F7073206869743A2000656328
:10064000686F3A00220A00656E7175657565696E9E
:10065000672022004E6F204C696E65204E756D62DA
:100660006572207769746820636865636B73756D64
:100670002C204C617374204C696E653A20004B4904
:100680004C4C45442E20005072696E746572207384
:10069000746F707065642064756520746F20657276
:1006A000726F72732E2046697820746865206572B7
:1006B000726F7220616E6420757365204D3939390F
:1006C00020746F20726573746172742E20285465D3
:1006D0006D706572617475726520697320726573DF
:1006E00065742E2053657420697420616674657288
:1006F0002072657374617274696E67290A004E6FA7
:1007000020436865636B73756D2077697468206C2E
:10071000696E65206E756D6265722C204C61737414
:10072000204C696E653A2000636865636B73756D74
:10073000206D69736D617463682C204C6173742043
:100740004C696E653A20004C696E65204E756D628D
:100750006572206973206E6F74204C617374204C35
:10076000696E65204E756D6265722B312C204C616F
:100770007374204C696E653A20004D313130002091
:10078000496E76616C69642065787472756465720F
:1007900020000000AF430000AF430000AF43000063
:1007A000AFC30000AFC30000AFC320746F6F206CF5
:1007B0006F6E6720657874727573696F6E207072E2
:1007C0006576656E7465640A0020636F6C642065ED
:1007D0007874727573696F6E2070726576656E7469
:1007E00065640A0020403A00202F0020543A00702F
:1007F000012C0190012701B0012201C0011D01F06F
:100800000118011002130130020E0160020901906B
:10081000020401C002FF000003FA004003F500805B
:1008200003F000D003EB002004E6007004E100E0D8
:1008300004DC004005D700C005D2004006CD00D042
:1008400006C8008007C3003008BE00F008B900C029
:1008500009B400B00AAF00B00BAA00D00CA500008C
:100860000EA000500F9B00C0109600501291000087
:10087000148C00C0158700B0178200B0197D00D01D
:100880001B7800001E730040206E0090226900F06B
:1008900024640040275F0090295A00E02B55001087
:1008A0002E500020304B0010324600E033410090C3
:1008B000353C001037370070383200A0392D00B0B9
:1008C0003A2800A03B2300603C1E00103D19009018
:1008D0003D1400103E0F00703E0A00C03E050000AF
:1008E0003F00000102102020080810204010204086
:1008F00080020102010804020101020408102040E4
:100900008080402010080402018004020180402001
:10091000100804020108040201010204081020402A
:1009200080010204081020408000002200250028D9
:10093000002B002E003100340002010000050108E8
:10094000010B010505050507050808080802020254
:10095000020A0A080804040404010101010101015A
:10096000010303030303030303040707070C0C0C31
:100970000C0C0C0C0C020202020606060606060609
:10098000060B0B0B0B0B0B0B0B0220204D323030E8
:100990002044300A0020204D3230302044002044D2
:1009A000697361626C65640A0046696C616D656EAD
:1009B000742073657474696E67733A002044002074
:1009C000490020204D3330312050005049442073DD
:1009D000657474696E67733A0A00205A00205900E2
:1009E00020204D323036205800486F6D65206F66EC
:1009F0006673657420286D6D290A00204500205A11
:100A00000020580020420020540020204D32303574
:100A1000205300416476616E63656420766172697B
:100A200061626C65733A20533D4D696E2066656561
:100A3000647261746520286D6D2F73292C20543DDC
:100A40004D696E2074726176656C206665656472AE
:100A500061746520286D6D2F73292C20423D6D69CE
:100A60006E696D756D207365676D656E7420746950
:100A70006D6520286D73292C20583D6D6178696D56
:100A8000756D205859206A65726B20286D6D2F7323
:100A9000292C20205A3D6D6178696D756D205A2092
:100AA0006A65726B20286D6D2F73292C2020453DBF
:100AB0006D6178696D756D2045206A65726B2028BF
:100AC0006D6D2F73290A0020540020520020204D04
:100AD000323034205000416363656C657261746923
:100AE0006F6E733A20503D7072696E74696E672C38
:100AF00020523D7265747261637420616E6420548B
:100B00003D74726176656C0A00204500205A002011
:100B1000590020204D3230312058004D6178696DE8
:100B2000756D20416363656C65726174696F6E20D9
:100B3000286D6D2F7332293A0A00204500205A0093
:100B400020590020204D3230332058004D61786903
:100B50006D756D2066656564726174657320286DBE
:100B60006D2F73293A0A00204500205A00205900B1
:100B700020204D3932205800537465707320706501
:100B80007220756E69743A0A0020746F6F206C6F62
:100B90006E6720657874727573696F6E2070726508
:100BA00076656E7465640A0020636F6C64206578F6
:100BB00074727573696F6E2070726576656E746598
:100BC000640A0024F4D43050C38E20C2A24017829D
:100BD0008B7011127A910D816CD90AA861E108C756
:100BE000586607615143061E4B5D05C145A7041AAF
:100BF000411104093D9803713931034036DB026528
:100C0000339102D4305402802E1D02632CEE017504
:100C10002AC501B028A001102781018F2564012B6E
:100C2000244B01E0223401AC211F018D200D0180F5
:100C30001FFC00841EED00971DDF00B81CD200E6EB
:100C40001BC600201BBC00641AB200B219A8000A1F
:100C500019A0006A189900D117910040178B00B5B0
:100C600016840031167E00B31579003A157300C75B
:100C7000146F0058146A00EE136600881363002591
:100C8000135E00C7125B006C12570015125400C1AE
:100C900011510070114F0021114B00D61049008DE9
:100CA0001047004610440002104200C00F40008070
:100CB0000F3E00420F3C00060F3B00CB0E38009366
:100CC0000E37005C0E3500270E3400F30D3200C1E4
:100CD0000D3100900D3000600D2E00320D2D0005FD
:100CE0000D2C00D90C2B00AE0C2900850C29005CC2
:100CF0000C2700350C27000E0C2600E80B2400C43E
:100D00000B2400A00B23007D0B23005A0B2100397C
:100D10000B2100180B2000F80A1F00D90A1E00BB87
:100D20000A1E009D0A1D00800A1D00630A1C004760
:100D30000A1B002C0A1B00110A1A00F7091A00DD11
:100D4000091900C4091900AB091900920917007BA1
:100D5000091800630917004C09160036091600200F
:100D60000916000A091500F5081500E0081400CC62
:100D7000081400B8081400A4081400900813007D9B
:100D80000812006B081300580812004608120034BD
:100D9000081100230811001208110001081100F0C9
:100DA000071000E0071000D0071000C0071000B0C7
:100DB000070F00A107100091070E0083070F0074B2
:100DC000070F0065070E0057070E0049070E003B8E
:100DD000070D002E070E0020070D0013070D00065B
:100DE000070D00F9060C00ED060D00E0060C00D41E
:100DF000060C00C8060C00BC060C00B0060C00A4D3
:100E0000060B0099060C008D060B0082060B00777E
:100E1000060B006C060B0061060A0057060B004C1F
:100E2000060A0042060A0038060A002E060A0024B6
:100E3000060A001A060A001006090007060A00FD45
:100E4000050900F4050900EB050900E2050900D9D0
:100E5000050900D0050900C7050900BE050900B550
:100E6000050800AD050800A50509009C05080094CB
:100E70000508008C050800840508007C050800743E
:100E80000508006C050700650508005D05070056AC
:100E90000508004E05070047050700400508003813
:100EA000050700310507002A050700230507001C78
:100EB000050600160507000F0507000805060002D5
:100EC000050700FB040600F5040700EE040600E831
:100ED000040600E2040700DB040600D5040600CF88
:100EE000040600C9040600C3040600BD040600B7DA
:100EF000040600B1040500AC040600A6040600A028
:100F00000405009B04060095040500900406008A71
:100F100004050085040500800406007A04050075B8
:100F2000040500700405006B0405006604050061FB
:100F30000405005C04050057040500520405004D3B
:100F400004050048040500430405003E0404003A7B
:100F500004050035040500300404002C04050027B6
:100F6000040400230405001E0404001A04040016EF
:100F7000040500110404000D040400090405000424
:100F800004040000040400FC030400F8030400F45B
:100F9000030400F0030400EC030400E8030400E48D
:100FA000030400E0030400DC030400D8030400D4BD
:100FB000030400D0030400CC030400C8030300C5ED
:100FC00003030024F404D9201BC40C5C0E9804C451
:100FD000095F0265077101F405F900FB04B30048DD
:100FE000048700C10369005803550003034500BE90
:100FF000023A008402310053022A0029022500042B
:10100000022000E4011C00C8011900AF011700987C
:1010100001140084011300710110006101100051DE
:10102000010E0043010D0036010B002B010B0020C7
:10103000010B00150109000C01090003010800FB68
:10104000000800F3000800EB000700E4000600DEE3
:10105000000600D8000600D2000600CC000500C73C
:10106000000500C2000500BD000400B9000400B581
:10107000000400B1000400AD000400A9000400A5B4
:10108000000300A20003009F0004009B00030098DF
:101090000003009500020093000300900003008D00
:1010A0000002008B0003008800020086000200841A
:1010B000000300810002007F0002007D0002007B2F
:1010C000000200790002007700010076000200743F
:1010D00000020072000100710002006F0002006D4A
:1010E0000001006C0002006A000100690002006754
:1010F000000100660001006500010064000200625A
:1011000000010061000100600001005F0002005D5D
:101110000001005C0001005B0001005A0001005961
:101120000001005800010057000100560001005561
:101130000001005400010053000000530001005260
:1011400000010051000100500001004F0001004E5D
:101150000000004E0001004D0001004C0001004B5A
:101160000000004B0001004A000100490001004856
:101170000000004800010047000100460000004652
:10118000000100450000004500010044000100434B
:101190000000004300010042000000420001004145
:1011A00000000041000100400001003F0000003F3E
:1011B0000001003E0000003E0001003D0000003D37
:1011C0000001003C0000003C0000003C0001003B2E
:1011D0000000003B0001003A0000003A0001003925
:1011E000000000390001003800000038000000381D
:1011F0000001003700000037000100360000003613
:101200000000003600010035000000350000003508
:1012100000010034000000340000003400010033FD
:1012200000000033000000330001003200000032F3
:1012300000000032000100310000003100000031E8
:101240000001003000000030000000300001002FDD
:101250000000002F0000002F0000002F0001002ED2
:101260000000002E0000002E0001002D0000002DC7
:101270000000002D0000002D0001002C0000002CBB
:101280000000002C0000002C0001002B0000002BAF
:101290000000002B0000002B0001002A0000002AA3
:1012A0000000002A0000002A000100290000002997
:1012B000000000290000002900000029000100288A
:1012C000000000280000002800000028000000287E
:1012D0000001002700000027000000270000002771
:1012E0000000002700010026000000260000002664
:1012F0000000002600000026000100250000002557
:101300000000002500000025000000250000002549
:10131000000100240000002400000024000000243C
:10132000000000240001002300000023000000232F
:101330000000002300000023000000230000002321
:101340000001002200000022000000220000002214
:101350000000002200000022000100210000002106
:1013600000000021000000210000002100000021F9
:1013700000000021000100200000002000000020EB
:1013800000000020000000200000002000000020DD
:10139000000000200001001F0000001F0000001FCF
:1013A0000000001F0000001F0000001F0000001FC1
:1013B0000001001E0000001E0000001E0000001EB4
:1013C000000000544845524D414C2052554E415763
:1013D000415900546865726D616C2052756E617779
:1013E00061790048656174696E67206661696C6542
:1013F000640048656174696E67206661696C656444
:10140000004572723A204D415854454D50004D41AF
:101410005854454D50207472696767657265640061
:101420004572723A204D494E54454D50004D494E3B
:1014300054454D5020747269676765726564003F5A
:101440000A0020573A00205A3A0020593A00204317
:101450006F756E7420583A200020453A00205A3AA1
:101460000020593A00583A0053657474696E672039
:1014700054726176656C20416363656C657261745A
:10148000696F6E3A200053657474696E6720526507
:10149000747261637420416363656C657261746921
:1014A0006F6E3A200053657474696E6720507269DC
:1014B0006E7420416363656C65726174696F6E3A26
:1014C000200053657474696E67205072696E7420D1
:1014D000616E642054726176656C20416363656C53
:1014E00065726174696F6E3A20003A20002053657E
:1014F00072766F200020643A0020693A0020703A2A
:10150000005072696E7465722068616C7465642E37
:10151000206B696C6C28292063616C6C6564210AFE
:101520000048617264636F64656420446566617538
:101530006C742053657474696E6773204C6F6164BA
:1015400065640A0000002100240027002A002D0005
:101550003000330001010000040107010A0100000E
:1015600020002300260029002C002F00320000015B
:10157000000003010601090100000A0B02090C0D1D
:101580000E08070304010000000000000000000036
:10159000000000000000000000000000000000004B
:1015A0000000000012111000000000000000000008
:1015B00000000000000000000000000000002C20DF
:1015C00073797374656D2073746F70706564212016
:1015D0004865617465725F49443A20004572726FD4
:1015E000723A00526573656E643A20006F6B004B6F
:1015F000494C4C45442E20004E414E494E495459C9
:10160000494E46CDCCCC3D0AD7233C17B7D13877CD
:10161000CC2B329595E6241FB14F0A0000204100E3
:1016200000C84200401C4620BCBE4CCA1B0E5AAE2D
:10163000C59D7400407A10F35A00A0724E1809003C
:1016400010A5D4E80000E87648170000E40B540227
:101650000000CA9A3B000000E1F505000080969862
:1016600000000040420F000000A0860100000010B2
:101670002700000000E803000000006400000000F4
:10168000000A00000000000100000000002C76D8D5
:1016900088DC674F0823DFC1DFAE59E1B1B796E5BB
:1016A000E3E453C63AE651997696E8E6C28426EB1F
:1016B000898C9B62ED407C6FFCEFBC9C9F40F2BA32
:1016C000A56FA5F490055A2AF75C936B6CF9676DCA
:1016D000C11BFCE0E40D47FEF520E6B500D0ED901F
:1016E0002E0300943577050080841E080000204EEC
:1016F0000A000000C80C333333330F986E12831185
:1017000041EF8D2114893BE65516CFFEE6DB18D15B
:10171000844B381BF77C1D901DA4BBE4242032842D
:10172000725E228100C9F124ECA1E53D2700F19A07
:1017300011241FBECFEFD1E2DEBFCDBF00E00CBF52
:1017400017E0A0E0B2E0ECE3FCE501E00BBF02C073
:1017500007900D92AC3BB107D9F725E1ACEBB7E0B0
:1017600001C01D92AD3BB207E1F71BE0C8E9DBE029
:1017700000E006C021970109802FFE010E942B9DE9
:10178000C739D10780E00807A9F70E945A8D0C9449
:101790001CAE0C9400002F923F924F925F926F927A
:1017A0007F928F929F92AF92BF92CF92DF92EF92F1
:1017B000FF920F931F93CF93DF93CDB7DEB7C5563C
:1017C000D1400FB6F894DEBF0FBECDBF80914A0A5C
:1017D00020E6829FC00111248A52984F9093670996
:1017E000809366098091150C80FF1AC00EE316E005
:1017F000F8018491882341F0082E000C990B0E9477
:10180000757F0F5F1F4FF4CF609166097091670974
:101810008DE994E10E94407C8AE090E00E94757F0F
:101820008091660990916709FC0101962081203220
:10183000D9F3F0936709E09366097E0121E8E20E8F
:10184000F11C80E8D7011D928A95E9F780818332E7
:10185000D9F53196CB5CDE4F188219821A821B8231
:10186000C553D140AAE0B0E0CB5CDE4F288139817E
:101870004A815B81C553D1400E94FDAD2191022E6A
:10188000000C330B205331098901330F220B330B2A
:1018900028013901460E571E681E791ECB5CDE4FAB
:1018A000488259826A827B82C553D14080818053AD
:1018B0008A30C0F2DF0131968C918032D9F3B09337
:1018C0006709A093660908C0CB5CDE4F18821982B5
:1018D0001A821B82C553D140E0916609F0916709D5
:1018E00080818E3469F010916609009167096AE27F
:1018F00070E0812F902F0E944FA10097D9F421C052
:10190000818190ED980F9A3010F08D3261F7CF0100
:101910000296FC010196208120532A30D0F3CF019A
:10192000FC01019620812032D9F3F0936709E093FE
:101930006609D9CFFC0131968291803231F08A322A
:1019400021F0A12FB02F2D9102C01082F5CFFD0103
:10195000808111968032D9F380538A3010F00C9434
:10196000802A00E010E03AE0309FC001319F900DE6
:1019700011248C01005311098191080F111D87FD5D
:101980001A95808180538A3078F3CF01FC0101964B
:1019900030813032D9F3F093D507E093D4072D345A
:1019A00009F4F0C624F4273481F00C94802A203501
:1019B00011F40C949326243511F00C94802A009392
:1019C0002D0A0EE316E00C946D260B35110509F473
:1019D000CFC438F504301105A8F40230110508F021
:1019E00055C00115110509F449C00130110511F068
:1019F0000C94B22A0E94106B0E944B3510E000E05C
:101A00000C9485280430110509F4ACC40A3511057D
:101A100011F00C94B22A1092D30710E000E00C945D
:101A200085280A3928E0120709F474C580F4043DBA
:101A300047E0140709F462C5093958E0150709F4AD
:101A400063C50C35110511F00C94B22A98C40C39F9
:101A500088E0180709F48BC608F481C60D391840D0
:101A600011F00C94B22A81E08093D3070E94933145
:101A70001092D30710E000E00C9485280E943B6B85
:101A80000E944B3510E000E00C94852880915E02A6
:101A9000811104C010E000E00C9485280E942A31D6
:101AA00089E40E946D30882329F00E9401316B0186
:101AB0007C0103C0C12CD12C76018AE40E946D30D8
:101AC000882359F00E940131CF5EDE4F688379830D
:101AD0008A839B83C151D14008C0CF5EDE4F1882FC
:101AE00019821A821B82C151D140A7019601C701F8
:101AF000B6010E94D4A74B015C01CF5EDE4F288166
:101B000039814A815B81C151D140CA01B9010E942A
:101B1000D4A79B01AC01C501B4010E94439D0E9462
:101B2000F49FCF5BDE4F688379838A839B83C154A4
:101B3000D1404090D2115090D3116090D411709048
:101B4000D511CB5EDE4F488259826A827B82C551B5
:101B5000D140A7019601C301B2010E94439DC75C19
:101B6000DE4F688379838A839B83C953D140609019
:101B7000D6117090D7118090D8119090D911C35E72
:101B8000DE4F688279828A829B82CD51D140CF5EBE
:101B9000DE4F288139814A815B81C151D140C40126
:101BA000B3010E94439DC35CDE4F688379838A83BF
:101BB0009B83CD53D1408090DA119090DB11A0909F
:101BC000DC11B090DD11CB5DDE4F88829982AA8254
:101BD000BB82C552D140A50194016091420A709127
:101BE000430A8091440A9091450A0E94429DCF5D2C
:101BF000DE4F688379838A839B83C152D1404090B2
:101C0000460A5090470A6090480A7090490ACB5B98
:101C1000DE4F488259826A827B82C554D1406090EF
:101C2000DE117090DF118090E0119090E111C75D9E
:101C3000DE4F688279828A829B82C952D140A70195
:101C400096015058C35FDE4F288339834A835B83F4
:101C5000CD50D140CF5EDE4F88819981AA81BB8172
:101C6000C151D140B058C75EDE4F88839983AA83A3
:101C7000BB83C951D14040903A0A50903B0A6090D2
:101C80003C0A70903D0AC35DDE4F488259826A82E9
:101C90007B82CD52D140C75CDE4F288139814A8199
:101CA0005B81C953D140C301B2010E94429D6B01C7
:101CB0007C0160903E0A70903F0A8090400A9090AC
:101CC000410ACF5CDE4F688279828A829B82C1534F
:101CD000D140C35CDE4F288139814A815B81CD537D
:101CE000D140C401B3010E94429D4B015C01A70198
:101CF0009601C35FDE4F688179818A819B81CD50D7
:101D0000D1400E94D4A72B013C01A5019401C75EDC
:101D1000DE4F688179818A819B81C951D1400E94BF
:101D2000D4A79B01AC01C301B2010E94439D2B01CA
:101D30003C01A5019401C35FDE4F688179818A81EE
:101D40009B81CD50D1400E94D4A74B015C01A701DB
:101D50009601C75EDE4F688179818A819B81C95176
:101D6000D1400E94D4A79B01AC01C501B4010E94DF
:101D7000429DA30192010E94C19D6B017C0120E064
:101D800030E0A9010E946FA787FF0AC02BED3FE05A
:101D900049EC50E4C701B6010E94439D6B017C01F0
:101DA0000230110551F42BED3FE049EC50E4C7013E
:101DB000B6010E94429D6B017C0120E030E0A90148
:101DC000C701B6010E946FA7811132C0C35DDE4F0B
:101DD000288139814A815B81CD52D140CB5EDE4F73
:101DE000688179818A819B81C551D1400E946FA70A
:101DF00081111EC0CF5CDE4F288139814A815B8111
:101E0000C153D140C35EDE4F688179818A819B8155
:101E1000CD51D1400E946FA781110AC02BED3FE048
:101E200049EC50E4C701B6010E94439D6B017C015F
:101E3000CF5BDE4F288139814A815B81C154D1401B
:101E4000C701B6010E94D4A79B01AC010E94D4A790
:101E50004B015C01CF5DDE4F288139814A815B8176
:101E6000C152D140CA01B9010E94D4A79B01AC0163
:101E7000C501B4010E94439D0E94F49F4B015C0187
:101E80002FE632E143E85AE30E946FA787FD64C260
:101E9000C501B4010E94D69E0E94A79EC35EDE4F7C
:101EA00079836883CD51D140672B41F421E030E044
:101EB000C35EDE4F39832883CD51D140C35EDE4FF0
:101EC00048805980CD51D140B20180E090E00E941D
:101ED00073A74B015C019B01AC01C701B6010E94D5
:101EE000309ECB5EDE4F688379838A839B83C551A6
:101EF000D140A5019401CF5DDE4F688179818A814F
:101F00009B81C152D1400E94309EC35DDE4F6883E9
:101F100079838A839B83CD52D140C75DDE4F288170
:101F200039814A815B81C952D140CB5BDE4F6881E8
:101F300079818A819B81C554D1400E94429DA5012F
:101F400094010E94309ECF5CDE4F688379838A8340
:101F50009B83C153D140CB5EDE4F288139814A81BA
:101F60005B81C551D140CA01B9010E94D4A720E0CC
:101F700030E040E05FE30E94D4A79B01AC0160E049
:101F800070E080E89FE30E94429DCF5DDE4F688352
:101F900079838A839B83C152D140CB5DDE4F6880B9
:101FA00079808A809B80C552D14069867A868B86EB
:101FB0009C86C75DDE4F88809980AA80BB80C9520D
:101FC000D1408D869E86AF86B88A20E030E040E71B
:101FD00052E46091360270913702809138029091FC
:101FE00039020E94309E6B017C0160913402709135
:101FF0003502072E000C880B990B0E9475A79B01D8
:10200000AC01C701B6010E94D4A72AE037ED43E234
:102010005CE30E94D4A7CB5DDE4F688379838A831B
:102020009B83C552D1400E9464649B01AC0128533C
:102030003F4F4F4F5F4FC75DDE4F288339834A8341
:102040005B83C952D140C35FDE4F4880CD50D14041
:10205000C25FDE4F5880CE50D140C15FDE4F6880F6
:10206000CF50D140C05FDE4F7880C051D140D12CDD
:1020700022242394312CC35EDE4F88809980CD5179
:10208000D1402814390409F451C10E9494590E9486
:1020900064648B019C01C75DDE4F88809980AA80B3
:1020A000BB80C952D140081919092A093B0937FDDB
:1020B00010C09B01AC0128533F4F4F4F5F4FC75D8E
:1020C000DE4F288339834A835B83C952D1400E9403
:1020D000A683D39438E13D150CF459C0CF5DDE4F93
:1020E000288139814A815B81C152D140C75EDE4F70
:1020F000688179818A819B81C951D1400E94D4A78E
:102100004B015C01CB5EDE4F288139814A815B81C6
:10211000C551D140B201C3010E94D4A7A5019401C9
:102120000E94439D7B018C01CF5DDE4F2881398168
:102130004A815B81C152D140B201C3010E94D4A740
:102140004B015C01CB5EDE4F288139814A815B8186
:10215000C551D140C75EDE4F688179818A819B81FC
:10216000C951D1400E94D4A79B01AC01C501B40163
:102170000E94429D2B013C01C701D801C75EDE4F82
:1021800088839983AA83BB83C951D14066C0B101BA
:1021900080E090E00E9473A7CB5EDE4F28813981FA
:1021A0004A815B81C551D1400E94D4A74B015C019B
:1021B0000E942D9E6B017C01C501B4010E94E99F24
:1021C0004B015C01A7019601C35FDE4F68817981F5
:1021D0008A819B81CD50D1400E94D4A72B013C0124
:1021E000A5019401CF5EDE4F688179818A819B8150
:1021F000C151D1400E94D4A79B01AC01C301B201DF
:102200000E94439D2B013C01A5019401C35FDE4F59
:10221000688179818A819B81CD50D1400E94D4A769
:102220004B015C01A7019601CF5EDE4F6881798189
:102230008A819B81C151D1400E94D4A79B01AC01EE
:10224000C501B4010E94429DC75EDE4F6883798359
:102250008A839B83C951D140D12C9201A301C75CD1
:10226000DE4F688179818A819B81C953D1400E9468
:10227000439D69837A838B839C83C75EDE4F28816D
:1022800039814A815B81C951D140C35CDE4F68818D
:1022900079818A819B81CD53D1400E94439D6D837A
:1022A0007E838F839887C35DDE4F288139814A8181
:1022B0005B81CD52D14069857A858B859C850E9452
:1022C000439D69877A878B879C87CF5CDE4F288107
:1022D00039814A815B81C153D1406D857E858F856F
:1022E00098890E94439D6D877E878F87988BCE014A
:1022F00001960E94F087C0902D0ACB5DDE4FE880EA
:10230000F9800A811B81C552D1409E01235F3F4F56
:10231000AE01475F5F4FBE016B5F7F4FCE010196FD
:102320000E946F3F4FEF241A340AA5CEC0902D0AA9
:10233000CB5DDE4FE880F9800A811B81C552D14018
:1023400026E43AE042E45AE06EE37AE08AE39AE077
:102350000E946F3F0E94012C0E94F73410E000E0C1
:102360000C9485280E94023510E000E00C9485282A
:1023700081E08093D30710E000E00C94852885E489
:102380000E946D30982E811102C00E945D5C01E9AF
:10239000A02E02E0B02E82EDC82E81E1D82E93EC63
:1023A000E92E97E0F92E00E010E0812CD5018D9107
:1023B0005D010E946D30882309F44EC0F601208132
:1023C000318142815381CB59DE4F2883C556D1409C
:1023D000CE59DE4F3883C256D140CD59DE4F4883A7
:1023E000C356D140CC59DE4F5883C456D1400E94C9
:1023F0000131D6016D937D938D939C931397CB59A7
:10240000DE4F2881C556D140CE59DE4F3881C256A5
:10241000D140CD59DE4F4881C356D140CC59DE4F13
:102420005881C456D14003301105B1F00E94429D3D
:102430009B01AC01F70160817181828193810E94CF
:10244000439DD7016D937D938D939C931397C80102
:102450000E941C30882483940F5F1F4FB4E0CB0E82
:10246000D11CE4E0EE0EF11C0430110509F09ECF02
:10247000882031F00E94033410E000E00C9485289D
:10248000992009F407CB2091EE113091EF11409182
:10249000F0115091F1116091DE117091DF11809176
:1024A000E0119091E1110E94D4A70E94B69F609321
:1024B000F1147093F2148093F3149093F4148FB783
:1024C000F8944091F1145091F2146091F3147091CA
:1024D000F4144093CE115093CF116093D0117093A8
:1024E000D1118FBF1092E1141092E2141092E314F4
:1024F0001092E41410E000E00C9485280E9402354C
:1025000010E000E00C9485280E94933110E000E078
:102510000C9485288EE40E946D30882309F4BACA91
:102520000E948030182F833008F0EDC0BE016F5F2D
:102530007F4F82ED91E10E940B2C89819A81AB81C2
:10254000BC818093560990935709A0935809B09382
:1025500059098D819E81AF81B88580935A099093E6
:102560005B09A0935C09B0935D0989859A85AB8569
:10257000BC8580935E0990935F09A0936009B09336
:10258000610986E50E946D30882361F10E94013166
:10259000412F50E0FA01E153F84F2081DA01AA0FF0
:1025A000BB1FAA0FBB1F211104C02091D3072223F8
:1025B00059F0E1E0F0E0EC0FFD1FEA0FFB1F208176
:1025C00031814281538103C020E030E0A9018D01B7
:1025D0000A5A164F0E94439DD8016D937D938D93A7
:1025E0009C93139786E40E946D30882359F00E94D3
:1025F000013120E030E0A9010E94AA9F181614F4CE
:102600000C9495288091560990915709A0915809EA
:10261000B091590989839A83AB83BC8380915A090D
:1026200090915B09A0915C09B0915D098D839E83B7
:10263000AF83B88780915E0990915F09A09160098E
:10264000B091610989879A87AB87BC878091460AD8
:102650009091470AA091480AB091490A8D879E87B8
:10266000AF87B88B20E030E040E752E4609136025B
:102670007091370280913802909139020E94309E09
:102680006B017C018091340290913502BC01990F5D
:10269000880B990B0E9475A79B01AC01C701B6017D
:1026A0000E94D4A72AE037ED43E25CE30E94D4A75E
:1026B000C0902D0A7B018C019E01235F3F4FAE012C
:1026C000475F5F4FBE016B5F7F4FCE0101960E9457
:1026D0006F3F89849A84AB84BC84CD80DE80EF8098
:1026E000F88409811A812B813C8142E45AE06EE32F
:1026F0007AE08AE39AE00E945E560E94012C10E084
:1027000000E00C948528833009F0C4C986E50E9456
:102710006D30882309F4BEC90E9401316B017C0130
:1027200086E40E946D3081110E94DE308091BF11DD
:10273000882361F0C701B6010E94A19E84E695E15D
:102740000E94AA8A10E000E00C94852840E0C701AE
:10275000B6010E94546C10E000E00C9485280E94A1
:102760005D5C0E94F73410E000E00C94852881E065
:102770008093D3070E944B351092D30710E000E0FE
:102780000C9485280831B1E01B0709F4ABC608F0AA
:10279000ECC00C36110509F44BC408F06DC00135CE
:1027A000110509F48DC4C8F50F31110509F40AC2E9
:1027B000D0F40530110509F4F1C158F403301105C6
:1027C00011F00C94B52A0E943B6B10E000E00C94D1
:1027D00085280131110509F4E7C10231110509F419
:1027E00090C40C94B52A0B34110509F43BC330F4A2
:1027F0000A32110509F4F2C20C94B52A0C34110501
:1028000009F436C30D34110511F00C94B52A0E9459
:102810005C7F10E000E00C9485280C35110509F46C
:10282000C8C480F40335110509F464C408F45CC419
:102830000435110509F465C40535110509F49CC476
:102840000C94B52A0936110509F411C430F4083680
:10285000110509F429C30C94B52A0A36110509F4A7
:1028600029C40B36110511F00C94B52A0E945C7630
:1028700010E000E00C9485280C38110509F4DEC343
:10288000B0F50237110509F440C598F40E3611056C
:1028900009F43AC308F408C40F36110509F452C309
:1028A0000037110511F00C94B52A82E692E00E94DF
:1028B000D0790737110509F437C540F403371105FE
:1028C00011F00C94B52A0EE612E011C50837110577
:1028D00009F421C50937110511F00C94B52A10929D
:1028E00009021092BE1110E000E00C9485280D3C06
:1028F000110509F490C5F8F4093C110509F47FC5E8
:1029000058F4083C110511F00C94B52A0E9430735C
:1029100010E000E00C9485280B3C110509F475C506
:102920000C3C110511F00C94B52A0E94327210E093
:1029300000E00C9485280C3D110509F472C558F48B
:102940000E3C110511F00C94B52A0E944E7410E053
:1029500000E00C9485280D3D110509F468C5023E80
:10296000110509F46AC50C94B52A043AF8E01F076A
:1029700011F40C94062008F08DC0073F31E01307D6
:1029800011F40C94C01F08F046C0003951E015073F
:1029900011F40C947E1EE0F40D3291E0190709F455
:1029A000A7C558F40C32114011F00C94B52A0E94BE
:1029B000857010E000E00C9485280E32E1E01E07DF
:1029C00009F49CC50F32114009F40EC60C94B52AC7
:1029D0000C3A21E0120711F40C94841E58F40A39C1
:1029E000114011F00C94B52A0E943E6F10E000E0F7
:1029F0000C948528053F51E0150711F40C94B71F7E
:102A0000063F114011F00C94B52A0E947D7810E029
:102A100000E00C948528093998E0190711F40C940A
:102A2000F01FF8F4033EB7E01B0711F40C94C61F27
:102A300058F4073E134011F00C94B52A0E94216F00
:102A400010E000E00C948528083428E0120711F407
:102A50000C94CC1F0839184011F40C94D21F0C941C
:102A6000B52A0B3948E0140711F40C94FC1F10F43C
:102A70000C94F61F023A88E0180711F40C94002019
:102A8000033A184011F00C94B52AC7010E94C4679C
:102A90000C941320053CA8E01A0711F40C94C323EE
:102AA00008F03FC0073BE8E01E0711F40C94152026
:102AB00010F50C3A28E0120711F40C940C2058F48D
:102AC000053A184011F00C94B52A0E94816710E075
:102AD00000E00C9485280D3A58E0150711F40C9489
:102AE00010200E3A184011F00C94B52AC7010E942C
:102AF00006660C941320093B98E0190711F40C9416
:102B0000212010F40C941B200A3BB8E01B0711F4A1
:102B10000C943020003C184011F40C94A0230C9429
:102B2000B52A0036F9E01F0711F40C942F24D8F4CD
:102B30000D3F38E0130711F40C94DC2138F40C3FFE
:102B4000184011F40C9456200C94B52A0E3F88E0DE
:102B5000180711F40C944C220F3F184011F40C94F8
:102B60008F220C94B52A0A36A9E01A0711F40C94A6
:102B7000B62538F40136194011F40C94D4240C9481
:102B8000B52A0B36F9E01F0711F40C943F26043CDC
:102B9000194011F40C945D260C94B52A0E94106B18
:102BA00010E000E00C9485280E949A8368EE73E0A0
:102BB00080E090E00E942C640E945B6B10E000E0DB
:102BC0000C9485288091851590918615019719F4AC
:102BD0000E94646408C060918F1570919015809177
:102BE00091159091921500918B1510918C15209153
:102BF0008D1530918E15601B710B820B930B28EE97
:102C000033E040E050E00E94BFAD80918715909185
:102C10008815A0918915B0918A15BC01CD01620F6C
:102C2000731F841F951FFCE3CF2ED12CE12CF12CB8
:102C3000A70196010E94BFAD762E672ECA01B90189
:102C4000A70196010E94BFAD6B017C01CA01B901C9
:102C500028E130E040E050E00E94BFAD4B015C0154
:102C6000C9016DE671E00E94049D8E010F5F1F4F48
:102C70006115710599F06F927F92DF92CF929F92CA
:102C80008F929F938F937F936F938CE292E09F93A9
:102C90008F931F930F930E9440A726C0009789F03F
:102CA0006F927F92DF92CF929F928F929F938F939A
:102CB0008CE192E09F938F931F930F930E9440A704
:102CC00013C081149104A104B104C1F06F927F92EA
:102CD000DF92CF929F928F9280E192E09F938F93A9
:102CE0001F930F930E9440A70FB6F894DEBF0FBE4C
:102CF000CDBFEEE3EE2EE6E0FE2E23C0C114D104DC
:102D0000E104F10469F06F927F92DF92CF9288E044
:102D100092E09F938F931F930F930E9440A7E4CF5D
:102D20006F927F9284E092E09F938F931F930F9313
:102D30000E9440A70F900F900F900F900F900F9050
:102D4000D8CFF7018491882349F0082E000C990B05
:102D50000E94757FFFEFEF1AFF0AF3CF70E4E72EB2
:102D600072E0F72EF7018491882349F0082E000CB9
:102D7000990B0E94757FFFEFEF1AFF0AF3CFB8019E
:102D80008DE994E10E94407C8AE090E00E94757F8A
:102D90008091F7118823F1F01092F7116091C30B25
:102DA0007091C40B072E000C880B990B0E9475A71D
:102DB00020917F02309180024091810250918202E5
:102DC0000E94AA9F181634F41092C40B1092C30BE1
:102DD0000E94653710E000E00C94852883E50E948E
:102DE0006D30882311F40C944A0D0E94DE307C0172
:102DF0008F3F910519F010F00C944A0D80E50E9468
:102E00006D30882339F00E94DE308C0197FF04C0BA
:102E10000C944A0D02E010E0E5E9F2E08191919115
:102E20000817190711F40C944A0D22E0E53EF20749
:102E3000A9F761E0802F0E94317E6E2D802F0E94C5
:102E4000607DB701802F0E946D7E0830110511F062
:102E50000C94B82AF092140CE092130C10E000E0ED
:102E60000C9485280E94218210E000E00C948528B3
:102E70008091851590918615019711F00C944A0D5B
:102E800082E090E090938615809385150E9464649B
:102E900060938F1570939015809391159093921570
:102EA00010E000E00C94852888E690E00E94B034A1
:102EB00081110C944A0D8091150C83FF02C00C9473
:102EC0004A0D83E50E946D30882311F40C944A0D5D
:102ED0000E9401310E94A19E7093C40B6093C30BAA
:102EE0000E9465370E94013120E030E04AEA52E456
:102EF0000E946FA7181614F00E945C7F0E94013197
:102F000010E000E00C9485288EE40E946D30882348
:102F100011F40C944A0D8091BC079091BD074AE0D2
:102F200050E060E070E001960E9447A46093BE0705
:102F30007093BF078093C0079093C10710E000E033
:102F40000C94852883E50E946D30882319F00E9437
:102F5000803001C080E08093150C0EE316E0F8018C
:102F60008491882341F0082E000C990B0E94757FF4
:102F70000F5F1F4FF4CF0BE512E0F8018491882317
:102F800041F0082E000C990B0E94757F0F5F1F4FB8
:102F9000F4CF8091150C882309F43CC06DE4E62E33
:102FA00062E0F62E00E010E020E08091150C90E049
:102FB000002E02C0959587950A94E2F780FF1AC00B
:102FC000BB24B394B20E222321F08CE290E00E9445
:102FD000757FF701C590D490F6018491882349F05C
:102FE000082E000C990B0E94757FFFEFCF1ADF0AA5
:102FF000F3CF2B2D0F5F1F4FF2E0EF0EF11C0530CA
:10300000110599F68AE090E00E94757F10E000E0DB
:103010000C94852807E512E0F8018491882391F348
:10302000082E000C990B0E94757F0F5F1F4FF4CF85
:103030001092000210E000E00C9485288091150C9D
:1030400083FF02C00C944A0D83E50E946D308823F3
:1030500011F40C944A0D0E9401310E94A19E7093BC
:10306000EE106093ED1010E000E00C94852889E6E6
:1030700090E00E94B03481110C94C72A0BE612E054
:10308000F8018491882341F0082E000C990B0E94CE
:10309000757F0F5F1F4FF4CF0E94B32B8AE090E043
:1030A0000E94757F0C94C72A0E94A67410E000E06D
:1030B0000C9485280E94BC3010E000E00C94852818
:1030C0000E9457590E945D5C0E9489831092140CE3
:1030D0001092130C68EE73E080E090E00E942C6484
:1030E00010E000E00C9485281092D20710E000E078
:1030F0000C94852881E08093D20710E000E00C94C6
:10310000852883E50E946D308823B1F00E9401314B
:1031100020E030E04AE754E40E94D4A70E94A79E32
:103120006093830270938402809385029093860259
:1031300010E000E00C94852888E50E946D30811134
:103140000C945C2889E50E946D3081110C945C28F8
:103150008AE50E946D3081110C945C2885E40E9400
:103160006D3081110C945C280E945D5C0E94898303
:1031700010E000E00C94852883E50E946D308823E0
:1031800011F40C944A0D0E94013120E030E04AE72E
:1031900054E40E94D4A70E94A79E6093FC117093F0
:1031A000FD118093FE119093FF1110E000E00C944C
:1031B000852841E9842E42E0942E02EE11E157EF7A
:1031C000A52E5BE0B52E24E935E1C35FDE4F3983E0
:1031D0002883CD50D140312CD4018D914D010E94D6
:1031E0006D30882309F466C0B3E03B125CC00E94D6
:1031F00001312B013C0120E030E040EA51E40E9423
:103200006FA787FF49C0A3019201F8016081718116
:10321000828193810E94309E6B017C019B01AC01F5
:103220006091EF0B7091F00B8091F10B9091F20B8C
:103230000E94D4A76093EF0B7093F00B8093F10B77
:103240009093F20BA7019601D5016D917D918D911F
:103250009C910E94D4A7F50160837183828393833C
:10326000C35FDE4FA881B981CD50D1406D917D9172
:103270008D919C910E9473A7A70196010E94D4A7EB
:103280000E94A79EC35FDE4FE881F981CD50D140F7
:103290006083718382839383D8014D925D926D9296
:1032A0007C92139707C00E940131F80160837183FB
:1032B0008283938333940C5F1F4FF4E0AF0EB11CF5
:1032C000C35FDE4F28813981CD50D1402C5F3F4F05
:1032D000C35FDE4F39832883CD50D14034E03312B1
:1032E0007BCF0E94F28C10E000E00C948528F8015E
:1032F0008491882311F40C944A0D082E000C990B2C
:103300000E94757F0F5F1F4FF2CF0E947C7310E009
:1033100000E00C94852881E0809309028093BE111F
:1033200010E000E00C94852800E513E0F80184919A
:10333000882341F0082E000C990B0E94757F0F5FC7
:103340001F4FF4CF08E413E0F8018491882341F083
:10335000082E000C990B0E94757F0F5F1F4FF4CF52
:10336000059903C062E475E002C068E375E08DE989
:1033700094E10E94407C8AE090E00E94757F00E426
:1033800013E0F8018491882341F0082E000C990B7A
:103390000E94757F0F5F1F4FF4CF8091090187FD59
:1033A00003C062E475E002C068E375E08DE994E172
:1033B0000E94407C8AE090E00E94757F08E313E061
:1033C000F8018491882341F0082E000C990B0E948B
:1033D000757F0F5F1F4FF4CF079903C062E475E05C
:1033E00002C068E375E08DE994E10E94407C8AE0C8
:1033F00090E00E94757F10E000E00C9485280E9408
:103400000B7310E000E00C9485280E94E97210E034
:1034100000E00C9485280E94CE7110E000E00C942E
:1034200085280E94C27110E000E00C9485280E945B
:10343000A77110E000E00C94852880E50E946D30B3
:10344000882311F40C944A0D0E94DE307C0183E540
:103450000E946D30882321F00E94DE308C0102C072
:103460000FEF1FEFC8010196039710F00C944A0D5F
:10347000E5E9F2E0819191918E159F0511F40C948C
:10348000FD2722E0E53EF207A9F7F7FE02C00C9403
:103490004A0D0E945D5CDE2C60E08E2D0E94317E24
:1034A0000F3F3FEF130731F00130110571F401E0D8
:1034B00010E00DC08E2D0E94387D31E020E0892B78
:1034C00009F030E0032F122F02C000E010E08D2D34
:1034D0000E94387D8017910711F40C944A0D0E94C8
:1034E000A683F5CF0E94B07010E000E00C94852810
:1034F0000E94AA6F10E000E00C94852883E50E94EA
:103500006D30082F8823A1F00E94013160933F02A3
:1035100070934002809341029093420211E020E0B8
:1035200030E0A9010E946FA7811110E01093EE0B0B
:1035300080E50E946D30182F8823D9F020E030E01C
:10354000A90160913F0270914002809141029091E7
:1035500042020E946FA7882331F00E94803011E060
:10356000811101C010E01093EE0B10E000E00C940C
:10357000852801110C944A0D0EE316E0F8018491A0
:10358000882341F0082E000C990B0E94757F0F5F75
:103590001F4FF4CF61E070E08FE793E00E94983412
:1035A00020E030E040E05FE360913F027091400234
:1035B00080914102909142020E94439D0E94A19EEF
:1035C0008EE693E00E9498340AE613E0F8018491B5
:1035D000882311F40C944A0D082E000C990B0E94BC
:1035E000757F0F5F1F4FF2CF85E40E946D308823F7
:1035F00021F00E94DE307C0102C0E12CF12C83E43A
:103600000E946D30882349F00E94DE30C45ADE4F9C
:1036100099838883CC55D14008C025E030E0C45A56
:10362000DE4F39832883CC55D14085E50E946D302B
:10363000882351F00E94803031E0CE5ADE4F38832B
:10364000C255D140811105C0CE5ADE4F1882C255F5
:10365000D14083E50E946D308823B9F00E9401318A
:10366000C75EDE4F6883C951D140CB5EDE4F7883A1
:10367000C551D140C35EDE4F8883CD51D140CF5D6F
:10368000DE4F9883C152D14018C0C75EDE4F18820A
:10369000C951D140CB5EDE4F1882C551D140F7FCF5
:1036A00012C046E1C35EDE4F4883CD51D14053E4A2
:1036B000CF5DDE4F5883C152D140E114F10479F45B
:1036C0001092C2070CC08CE8C35EDE4F8883CD51D8
:1036D000D14092E4CF5DDE4F9883C152D1400E9429
:1036E00064644B015C01EF2871F067E475E08DE9DB
:1036F00094E10E94407C8AE090E00E94757F10E097
:1037000000E00C94852860E775E08DE994E10E9463
:10371000407C8AE090E00E94757F0E9457598FE7B5
:103720008093F11081E080930002CC5ADE4F8882B2
:103730009982AA82BB82C455D140C25ADE4F888288
:103740009982AA82BB82CE55D140C35CDE4F1882DB
:10375000CD53D140A0E4CB5DDE4FA883C552D1400C
:10376000BCE1C75DDE4FB883C952D140E6E4C35D1A
:10377000DE4FE883CD52D140CF5CDE4F1882C1537B
:10378000D140CF5BDE4F1882C154D140CB5BDE4FBE
:103790001882C554D140C75BDE4F1882C954D1404E
:1037A000C25BDE4F188219821A821B82CE54D1402E
:1037B000C65BDE4F188219821A821B82CA54D1401E
:1037C000C12CD12C76013FE7432E512C612C712C5A
:1037D0002FE730E040E050E0CF5EDE4F28833983B2
:1037E0004A835B83C151D140C85ADE4F1882198287
:1037F0001A821B82C855D14031E0CD5ADE4F388342
:10380000C355D140C75CDE4F19821882C953D140DD
:1038100010E000E0312C212C80910002882309F473
:1038200062C20E946464C35FDE4F688379838A83C7
:103830009B83CD50D1408091EF10882309F42BC198
:103840000E9478591091C50B0091C60B3090C70BA0
:103850002090C80B212F302F432D522DCF5CDE4FEF
:103860006881C153D140CF5BDE4F7881C154D140D4
:10387000CB5BDE4F8881C554D140C75BDE4F98815A
:10388000C954D1400E94AA9F1816A4F0CF5CDE4F05
:103890001883C153D140CF5BDE4F0883C154D14060
:1038A000CB5BDE4F3882C554D140C75BDE4F2882E8
:1038B000C954D140212F302F432D522DC35CDE4FF0
:1038C0006881CD53D140CB5DDE4F7881C552D14068
:1038D000C75DDE4F8881C952D140C35DDE4F9881FC
:1038E000CD52D1400E946FA787FD14C0C35CDE4F4C
:1038F0001883CD53D140CB5DDE4F0883C552D140F4
:10390000C75DDE4F3882C952D140C35DDE4F288289
:10391000CD52D140CD5ADE4F4881C355D140C75E0C
:10392000DE4F2881C951D140CB5EDE4F3881C55171
:10393000D140442309F47FC0C35EDE4F4881CD519E
:10394000D140CF5DDE4F5881C152D140612F702FE1
:10395000832D922D0E94AA9F18160CF09CC0C35F65
:10396000DE4F488159816A817B81CD50D140481911
:1039700059096A097B09DB01CA0188589341A109E9
:10398000B109B7FD88C0CF5EDE4F88819981AA81D9
:10399000BB81C151D14084199509A609B709B595D4
:1039A000A795979587958093F110C85ADE4F488365
:1039B00059836A837B83C855D140C75EDE4F5881E7
:1039C000C951D140CF5CDE4F5883C153D140CB5E4B
:1039D000DE4F8881C551D140CF5BDE4F8883C15413
:1039E000D140C35EDE4F9881CD51D140CB5BDE4FDD
:1039F0009883C554D140CF5DDE4FA881C152D140DC
:103A0000C75BDE4FA883C954D140C35FDE4F288116
:103A100039814A815B81CD50D140CC5ADE4F288319
:103A200039834A835B83C455D140CD5ADE4F188217
:103A3000C355D14030C0C35EDE4F4881CD51D14027
:103A4000CF5DDE4F5881C152D140612F702F832D41
:103A5000922D0E946FA787FF1EC0C35FDE4F888133
:103A60009981AA81BB81CD50D140CC5ADE4F2881AB
:103A700039814A815B81C455D140821B930BA40BD1
:103A8000B50BAC01BD01485853416109710977FD7F
:103A900002C00C94A12820E030E040EA51E4C75E67
:103AA000DE4F6881C951D140CB5EDE4F7881C55170
:103AB000D140C35EDE4F8881CD51D140CF5DDE4F16
:103AC0009881C152D1400E94439D9B01AC01612F5E
:103AD000702F832D922D0E94AA9F181684F40CE457
:103AE00014E0F8018491882311F40C944A0D082EF7
:103AF000000C990B0E94757F0F5F1F4FF2CF80E380
:103B000098EFAFEFBFEFC25ADE4F288139814A816B
:103B10005B81CE55D140821B930BA40BB50BC35FC9
:103B2000DE4F288139814A815B81CD50D140820F9F
:103B3000931FA41FB51FB7FD16C00E94B32B8AE0C8
:103B400090E00E94757FC35FDE4F88819981AA81D2
:103B5000BB81CD50D140C25ADE4F88839983AA835E
:103B6000BB83CE55D140C35FDE4F88819981AA8146
:103B7000BB81CD50D140880F991FAA1FBB1FCC5AC3
:103B8000DE4F288139814A815B81C455D140821B37
:103B9000930BA40BB50B88199909AA09BB098138A5
:103BA0009F44A241B10580F00EE214E0F801849137
:103BB000882311F40C944A0D082E000C990B0E94D6
:103BC000757F0F5F1F4FF2CFC75CDE4F28813981B1
:103BD000C953D140C45ADE4F48815981CC55D14098
:103BE000421753070CF018CE01ED13E0F801849151
:103BF000882341F0082E000C990B0E94757F0F5FFF
:103C00001F4FF4CFB701A6018CEB93E00E944F3415
:103C1000C65BDE4F488159816A817B81CA54D1409D
:103C200087EA93E00E944F34C25BDE4F488159819E
:103C30006A817B81CE54D14082E993E00E944F3467
:103C4000CE5ADE4F4880C255D140442011F40C9426
:103C50004A0DC0924E02D0924F02E0925002F09272
:103C600051022CE933E549E45EE3C65BDE4F68812F
:103C700079818A819B81CA54D1400E94D4A76B016B
:103C80007C01609305027093060280930702909373
:103C900008022CE933E549E45EE3C25BDE4F68814C
:103CA00079818A819B81CE54D1400E94309E60935D
:103CB0005202709353028093540290935502A701CD
:103CC000960160E070E08FE793E40E94309E60937D
:103CD0006C0970936D0980936E0990936F0910E0E1
:103CE00000E00C9485288091000281110C944A0D0B
:103CF0000E94575910E000E00C9485280E945D5CFA
:103D000010E000E00C94852852ED252E51E1352E6F
:103D10002CE03AE0C35FDE4F39832883CD50D14099
:103D200045EE52E0CF5EDE4F59834883C151D1400A
:103D300000E010E0CF5EDE4F88819981C151D14013
:103D4000855E9240C75EDE4F99838883C951D1401A
:103D5000CF5EDE4FA881B981C151D1408D91CF5E38
:103D6000DE4FB983A883C151D140882309F4BCC078
:103D7000F10180809180A280B380F801E15AFD4F6B
:103D80002081318142815381F801E559FD4F6081E5
:103D90007181828193810E94439D20E030E040E068
:103DA0005FE30E94D4A79B01AC01C501B4010E944E
:103DB000AA9F181644F4F801E352FB4F65917591E0
:103DC0008591949103C060E070E0CB01C35FDE4F4A
:103DD000A881B981CD50D1404D905D906D907C907F
:103DE000A30192010E94439DF801ED53F84F2081F9
:103DF0003181428153810E94439D9B01AC01C501E9
:103E0000B4010E94429D6B017C0120E030E040EA59
:103E100051EC0E94AA9F1816ACF520E030E040EA71
:103E200051E4C701B6010E946FA787FF2BC0A7010D
:103E30009601C301B2010E94429D6B017C01A30166
:103E400092010E94429D9B01AC01C501B4010E94F8
:103E5000439DF1016083718382839383C35FDE4F4F
:103E6000A881B981CD50D140CD92DD92ED92FC92E6
:103E70001397C75EDE4F88819981C951D1400E9456
:103E80001C3032C00CED15E1F8018491882341F01B
:103E9000082E000C990B0E94757F0F5F1F4FF4CF07
:103EA0000FEB14E0F8018491882341F0082E000CF8
:103EB000990B0E94757F0F5F1F4FF4CF88E290E04F
:103EC0009A83898388EC90E0CF5FDE4F9983888363
:103ED000C150D140BE016F5F7F4FCE018F5F9E4FBB
:103EE0000E948C820C94FD27F4E02F0E311C0C5F95
:103EF0001F4FC35FDE4F28813981CD50D1402C5FE9
:103F00003F4FC35FDE4F39832883CD50D1400C3003
:103F1000110509F00FCF0E9403340E947C7383E9DE
:103F200092E0CF5FDE4F99838883C150D14008EC87
:103F300010E01A830983BE016F5F7E4FCE010196A8
:103F40000E948C828AEB92E0CF5FDE4F9983888358
:103F5000C150D1401A830983BE016F5F7E4FCE01ED
:103F600001960E948C8210E000E00C9485280E944B
:103F70007D7880E00E947E4B10E000E00C94852864
:103F80000E94306F10E000E00C9485280E94898325
:103F900010E000E00C9485280E94E56810E000E045
:103FA0000C94852880912C0A882319F063E875E029
:103FB00002C066E875E0C7010E9463A110E001E05D
:103FC000CB5CDE4F688079808A809B80C553D1406E
:103FD00067286828692811F40C942A280C940C2866
:103FE0000E94BE6810E000E00C9485280E948E6854
:103FF00010E000E00C948528C7010E94546813C0AB
:104000000E94246810E000E00C9485280E949167CB
:1040100010E000E00C948528C7010E940F6703C0E0
:10402000C7010E948966182F92C50E94F96510E0A9
:1040300000E00C9485280E94EB6510E000E00C94F1
:10404000852800E010E0980141E068EE73E080E030
:104050000E9466541092FF0910E000E00C9485283D
:1040600086E50E946D30882311F40C944A0D0E945D
:10407000803091E0811190E09093F513992311F431
:104080000C944A0D8AEB93E10E94A26D8091A314D7
:10409000811106C084E792E19093A2148093A11449
:1040A0001092F21310E000E00C9485288EE40E9438
:1040B0006D30882311F40C944A0D0E948030082F33
:1040C00084E40E946D30882321F00E948030182FF4
:1040D00001C010E081E40E946D30882319F00E9435
:1040E0008030182F89E40E946D30882319F00E94D7
:1040F0008030182F802F90E0FC013A97E830F105CE
:1041000010F00C94BB2A8827EE58FF4F8F4F0C9469
:104110002B9D0E9471368823A1F040E050E0BA0147
:104120008CE00E943A8980E00E949E898061482F3D
:1041300050E060E070E080E00E943A8910E000E02A
:10414000E4C769E875E081E193E10E942C7C10E00E
:1041500000E0DBC7CF5FDE4F1882C150D14019822B
:104160008BEE9AE00197F1F70E94B28966EB75E059
:1041700081E193E10E942C7C0E94C0820E94C08257
:10418000BE016F5F7E4F80E00E94C48281115CC0DF
:10419000BE016F5F7F4F81E00E94C482811154C0D5
:1041A00065EC75E081E193E10E94407CCF5FDE4FDA
:1041B0004881C150D14050E060E070E020E181E1F1
:1041C00093E10E94E37B6DEC75E081E193E10E9455
:1041D000407C498150E060E070E020E181E193E1C2
:1041E0000E94E37B67E177E081E193E10E94FF5762
:1041F000CF5FDE4F8881C150D140803229F589815F
:10420000863711F568ED75E081E193E10E942C7C21
:1042100000E010E00E5F1F4F083B31E0130761F034
:10422000C80188519D4FFC013197DC0112976081D4
:104230008C910E945E4BEECF0E94C08268EE75E0CA
:1042400081E193E10E942C7C10E000E05EC788EFE2
:10425000810F823048F4812F90E09093C6148093B0
:10426000C51410E000E051C788E090E09093C614B8
:104270008093C51410E000E048C788EF810F8230BA
:1042800048F4812F90E09093B8148093B71410E015
:1042900000E03BC788E090E09093B8148093B71497
:1042A00010E000E032C788EF810F823048F4812FA0
:1042B00090E09093B6148093B51410E000E025C709
:1042C00088E090E09093B6148093B51410E000E07D
:1042D0001CC70E94B28910E000E017C788EF810F69
:1042E000823048F4812F90E09093B4148093B314FB
:1042F00010E000E00AC788E090E09093B814809343
:10430000B71410E000E001C70E94B2898091AD149B
:10431000982F98609093AD1412E01093B1141092FE
:10432000B214EBE3FDE03197F1F788620E9460364A
:104330008BE496E40197F1F78091AD1480620E94BE
:10434000603683E592E00197F1F78091AD148062C9
:104350000E9460368091AD1480620E94603684E0D5
:104360008093AE148CE00E94603681E00E9460363B
:104370008BE39FE10197F1F71093AF1486E00E9461
:10438000603660E080E00E9450376FEF88E00E9466
:10439000503760E281E00E9450376FEF84E00E9466
:1043A00050376FEF83E00E9450376FEF82E00E943A
:1043B000503710E000E0A9C68EE40E946D308823DB
:1043C00011F40C944A0D0E948030182F86E50E944B
:1043D0006D30882311F40C944A0D0E94AF30AC016B
:1043E00060E070E04115510561057105F1F411239C
:1043F00011F40C944A0DE3E9F9E080E090E02081AB
:1044000021130CC02BE0289FF001299FF00D1124EF
:10441000EF56F64F128210E000E077C601963B9609
:104420008A30910561F70C944A0D1C3029F170F423
:104430001A30D1F01B3011F00C94BE2A2FE531E573
:104440008BE00E94176D10E000E05FC61F30E1F0C6
:10445000103111F00C94BE2A25E23AE680E10E9468
:10446000176D10E000E051C624ED30E58AE00E94AF
:10447000176D10E000E049C62FE230E58CE00E94A5
:10448000176D10E000E041C621E73AE68FE00E9498
:10449000176D10E000E039C68EE40E946D3088236D
:1044A00011F40C944A0D0E948030F82E86E50E948B
:1044B0006D30882311F40C944A0D0E94AF308C01AA
:1044C0004DE0F41629F05EE0F51681F00C94C12A57
:1044D00061E08091B7140E94317EB8017727809106
:1044E000B7140E946D7E10E000E00FC661E080917D
:1044F000B514012B51F00E94317E61E08091B5141A
:104500000E94607D10E000E000C60E94317E60E005
:104510008091B5140E94607D10E000E0F6C58E0128
:104520000F5F1F4F81E1D8011D928A95E9F78EE454
:104530000E946D30882309F400C10E94803083E519
:104540000E946D30882309F475C00E948030B82E17
:1045500086E50E946D30882329F06EE170E0C80185
:104560000E94EB308FEF8B0D823008F0E3C020E02B
:1045700040E8F42EB1E0822FBB1202C0806801C077
:10458000806CCF5FDE4FF882C150D140CE5FDE4FEE
:104590008883C250D140CE018F5F9E4FCB59DE4FF2
:1045A0002883C556D1400E943C376CE277E089EA07
:1045B00094E10E94FF57CB59DE4F2881C556D14068
:1045C0002F5F2031B9F66AE070E080E090E00E9451
:1045D0002C647801C12CD12C30E8A32EF801019075
:1045E0000020E9F73197E01BF10BCE16DF0608F04B
:1045F000A1C0E1E08C2DBE1202C0806801C0806CB9
:10460000CF5FDE4FA882C150D140CE5FDE4F88839E
:10461000C250D140CE018F5F9E4F0E943C37D701E0
:104620006D917D0189EA94E10E949F2BBFEFCB1A27
:10463000DB0AD4CF84E50E946D30882341F10E94CB
:104640008030182F86E50E946D3081110E94AF30B6
:10465000113099F058F0123009F06CC081E00E94DE
:1046600060368BE39FE10197F1F764C08091AE144F
:104670008B7F8093AE14886007C08091AE14982F12
:1046800094609093AE148C600E94603653C082E5B3
:104690000E946D3081110BC087E40E946D30811142
:1046A00006C082E40E946D30882309F446C082E58A
:1046B0000E946D30882309F41FC70E948030C82EE5
:1046C000D12CE12CF12C87E40E946D30882309F471
:1046D0000BC70E948030882E912CA12CB12C82E433
:1046E0000E946D30882309F403C70E948030482F50
:1046F00050E060E070E0BA2CA92C982C8824760158
:10470000DD24CC248C289D28AE28BF2875016401A7
:10471000C42AD52AE62AF72AB7018827992784E0F0
:104720000E9450376D2D83E00E9450376C2D82E03F
:104730000E94503710E000E0E8C410E000E0E5C45B
:104740008EE40E946D30882311F40C944A0D0E946F
:104750008030182F86E50E946D30882311F40C9468
:104760004A0D0E948030882339F061E0812F0E9439
:10477000607D10E000E0C9C460E0812F0E94607D90
:1047800010E000E0C2C48E010F5F1E4F8CE0F80104
:1047900011928A95E9F786E50E946D30882309F425
:1047A00054C06BE070E0C8010E94EB30F80101904A
:1047B0000020E9F73197E01BF10B09F449C03C9761
:1047C0001CF0D8011B961C92629942C06EE076E004
:1047D00084E792E10E94FF57B80184E792E10E94CA
:1047E000FF5764E670E080E090E00E942C6466E190
:1047F00076E084E792E10E94FF5764E670E080E093
:1048000090E00E942C648E010F5F1F4F68015601DB
:10481000A01AB10A84E792E10E945D7A892B41F0E7
:1048200084E792E10E943B7AF60181936F01EFCF1A
:10483000F801EA0DFB1D108264E276E0C8010E94D7
:1048400079A1892B09F080C103C06CE276E002C037
:104850006AE376E0C7010E9463A119E178C183E5AC
:104860000E946D30882311F40C944A0D0E94803010
:10487000182F282F30E0243031050CF090C03093F1
:10488000C1112093C0118230B1F0833091F1813099
:1048900009F040C08DEC9CECA0E8B2E480937D0967
:1048A00090937E09A0937F09B093800986EF98E2E8
:1048B000ACE4B2E43FC080E090E0A2E6B2E48093D2
:1048C0007D0990937E09A0937F09B093800989E2C6
:1048D0009CEDA4E9B2E48093790990937A09A093BE
:1048E0007B09B0937C0991E09093770990937809C4
:1048F0002DC08AE999E9A9EBB2E480937D099093F0
:104900007E09A0937F09B093800989E29CEDA4E918
:10491000B2E410C08AE999E9A2E6B2E480937D0985
:1049200090937E09A0937F09B09380098AE999E169
:10493000A5E9B2E48093790990937A09A0937B0961
:10494000B0937C091092770910927809C9010E94EE
:104950005D57612F70E080E090E00E9473A78B01AB
:104960009C0141E064E873E080E00E94665460913D
:10497000790970917A0980917B0990917C090E9454
:10498000515700917D0910917E0920917F09309146
:10499000800944E068E973E080E00E9466540E9468
:1049A0005B6B10E000E0B1C30E945456882309F409
:1049B000CDC086E50E946D30882309F458C00E945E
:1049C000AF308D3E984509F048CF9E012F5F3F4F95
:1049D000690110E0812F0E944F52D6018D939D9363
:1049E0006D018130904108F038CF1F5F133091F78F
:1049F00069817A8170932D0260932C028B819C8156
:104A000090932F0280932E028D819E81909331028C
:104A10008093300280E090E00E9473A78B019C019C
:104A200042E060E273E080E00E94665460912E02F2
:104A300070912F0280E090E00E9473A78B019C018F
:104A400042E062E273E080E00E94665460913002CE
:104A50007091310280E090E00E9473A78B019C016D
:104A600042E064E273E080E00E94665466C082E443
:104A70000E946D30882309F4F0CEFE0131966F015B
:104A800010E0812F0E944F52D6018D939D936D01AE
:104A90008130904108F0E1CE1F5F133091F76981BA
:104AA0007A8170932D0260932C028B819C8190936C
:104AB0002F0280932E028D819E81909331028093EC
:104AC000300280E090E00E9473A78B019C0142E0DD
:104AD00064E373E080E00E94665460912E0270915E
:104AE0002F0280E090E00E9473A78B019C0142E0BE
:104AF00066E373E080E00E9466546091300270913A
:104B0000310280E090E00E9473A78B019C0142E09B
:104B100068E373E080E00E94665400E010E02BE35D
:104B200033E441E062E373E080E00E9466548AE08F
:104B300092E090932B0280932A020E945B6B69E1C2
:104B400077E0C7010E9463A110E001C018E101E015
:104B5000CB5CDE4F488059806A807B80C553D14052
:104B600045284628472809F473C256C283E50E94A7
:104B70006D30882319F00E94013164C00E945456A0
:104B8000882309F462C00E945456811107C06CE466
:104B900076E08DE994E10E942C7C4CC0FE013196B8
:104BA0007F0110E0812F0E94C953D7016D937D933F
:104BB0008D939D937D011F5F1330A1F726EE3EE29A
:104BC00045E652E46D817E818F8198850E94309EFA
:104BD0000E94E99F6B017C0126EE3EE245E652E42D
:104BE00069857A858B859C850E94309E0E94E99F0D
:104BF0004B015C012CEE31E14EE053E4C701B601FC
:104C00000E94D4A76B017C012CE53FEC4EE153E4FC
:104C1000C501B4010E94D4A79B01AC01C701B60134
:104C20000E94429D23E333E345ED52E40E94439DFD
:104C30004B015C012AE939E949E95EE3C501B401A8
:104C40000E94439D6B017C0103C0C12CD12C7601D5
:104C50000E945456882311F40C944A0DC09279098D
:104C6000D0927A09E0927B09F0927C09C701B601E3
:104C70000E9451570E945B6B10E000E046C283E542
:104C80000E946D30882311F40C944A0D0E9401316A
:104C90006B017C010E945456882311F40C944A0D38
:104CA000C0927D09D0927E09E0927F09F09280093E
:104CB0000E945B6B10E000E028C20E948288809115
:104CC000A31481110C944A0D80E094E19093A214F6
:104CD0008093A11410E000E018C2F80184918823A9
:104CE00041F0082E000C990B0E94757F0F5F1F4F3B
:104CF000F4CF09EE14E0F8018491882341F0082EE6
:104D0000000C990B0E94757F0F5F1F4FF4CF8091AD
:104D10002D0A90E00E94B07F8AE090E00E94757FAB
:104D200010E000E0F2C10D3AF8E01F0709F4DFC01F
:104D300008F04EC00B3938E0130709F4B3C088F40B
:104D4000093958E0150709F49FC008F0A0C00839D8
:104D5000184009F019C4AE014F5F5F4F6A0110E0BF
:104D60006CC00D39A8E01A0709F4A3C008F49AC072
:104D70000E39E8E01E0709F49FC00C3A184009F00C
:104D800003C48091DD118F938091DC118F9380910A
:104D9000DB118F938091DA118F938091D9118F93CA
:104DA0008091D8118F938091D7118F938091D611D4
:104DB0008F938091D5118F938091D4118F9380918F
:104DC000D3118F938091D2118F9381E996E0ADC07A
:104DD000003C28E0120709F4BBC0C8F4083B48E0D7
:104DE000140709F4A9C038F4073B184009F0CCC3F4
:104DF0000E943554A3C0093B98E0190709F4A0C0EC
:104E00000A3B184009F0C0C30E94545697C0023CA8
:104E1000B8E01B0709F4B3C008F4A5C0053CF8E0EE
:104E20001F0709F4D5C00036194009F0ADC38091C1
:104E3000C1118F938091C011CFC0812F0E94C9539F
:104E4000D6016D937D938D939D936D011F5F1330FC
:104E5000A1F78C858F938B858F938A858F93898516
:104E60008F9388858F938F818F938E818F938D8180
:104E70008F938C818F938B818F938A818F9389817C
:104E80008F9380E696E051C08CE696E00DC080914D
:104E9000BF111F928F9389E796E09F938F938DE7C1
:104EA00096E01EC084E896E09F938F9385E796E096
:104EB00096C08FEF99E0F8CF8EE40E946D3081119B
:104EC00002C015E1CFC00E948030843008F0C9C014
:104ED0000E94C9539F938F937F936F938BE896E0C3
:104EE0009F938F93FF92EF920E94274F6AC0CE014B
:104EF00001960E94B6818C858F938B858F938A85CE
:104F00008F9389858F9388858F938F818F938E81DF
:104F10008F938D818F938C818F938B818F938A81D7
:104F20008F9389818F938DE996E09F938F93FF9262
:104F3000EF920E94274F45C00E9428541F924CC0F8
:104F400082B386958695869591E089278170F6CF04
:104F50008EE40E946D30882309F4B3CF0E94803024
:104F60000E94387D0AC08EE40E946D30882309F4C7
:104F7000A8CF0E9480300E940D649F932DC0FE0137
:104F800031966F0110E0812F0E944F52D6018D9310
:104F90009D936D011F5F1330B1F78E818F938D81CB
:104FA0008F938C818F938B818F938A818F9389814B
:104FB0008F938DEA96E09F938F93FF92EF920E94DA
:104FC000274F0FB6F894DEBF0FBECDBF0C94DE1F87
:104FD00069E177E00C94DB1F8F9389EA96E09F9359
:104FE0008F93FF92EF920E94274F0F900F900F9098
:104FF0000F900F900F900C94DE1FCB5CDE4F48801B
:1050000059806A807B80C553D1404528462847286F
:1050100009F488C010E000E069EB76E08DE994E1E6
:105020000E94407C2AE0CB5CDE4F488159816A8136
:105030007B81C553D1408DE994E10E94E37B6CE212
:1050400077E08DE994E10E94407C002309F46AC076
:10505000111115C06BEB76E08DE994E10E94407C64
:105060001DC016E101E0CB5CDE4F488059806A80AC
:105070007B80C553D14045284628472869F664E11E
:1050800076E08DE994E10E94407C412F50E060E0A1
:1050900070E02AE08DE994E10E94E37B6CE277E026
:1050A0008DE994E10E94407CBE016F577F4F8DE9EE
:1050B00094E10E942C7C6BC20E945D5C88E50E949A
:1050C0006D30882319F05F981092740989E50E9469
:1050D0006D30882319F08A98109275098AE5FDD7FA
:1050E000882351F09FB7F894809108018E7F8093B8
:1050F00008019FBF1092760985E4EFD7882311F449
:105100000C944A0D129A10E000E0CB5CDE4F6880F0
:1051100079808A809B80C553D14067286828692898
:1051200009F07ACF0E94828832C20E9401316093D6
:1051300036027093370280933802909339020C94B0
:105140000213C75CDE4F88809980C953D140181480
:1051500019040CF071C1C85ADE4F88809980AA806A
:10516000BB80C855D140880E991EAA1EBB1EC85AC6
:10517000DE4F288139814A815B81C855D140281B87
:10518000390B4A0B5B0BCA01B901A30192010E94C2
:10519000B0ADA50194010E94E1ADCF5EDE4F488025
:1051A00059806A807B80C151D140420E531E641EDB
:1051B000751E34E143165104610471042CF14CEE68
:1051C00044165104610471043CF450E8451651043E
:1051D00061047104F4F005C0ABEE4A2E512C612C31
:1051E000712CCF5EDE4F488259826A827B82C15128
:1051F000D1408EEF90E0A0E0B0E084199509A609B7
:10520000B7092C013D010DC0F4E14F2E512C612C4A
:10521000712CCF5EDE4F488259826A827B82C151F7
:10522000D140CF5EDE4F488159816A817B81C15177
:10523000D14087EB94E00E946F34B301A20182EB6E
:1052400094E00E946F34C35CDE4F4881CD53D1405F
:10525000CB5DDE4F5881C552D140C75DDE4F6881BE
:10526000C952D140C35DDE4F7881CD52D1408BEA27
:1052700094E00E944F34CF5CDE4F4881C153D1404F
:10528000CF5BDE4F5881C154D140CB5BDE4F68818C
:10529000C554D140C75BDE4F7881C954D14084EA00
:1052A00094E00E944F34C75CDE4F28813981C95396
:1052B000D140233031050CF4BFC0C301B2010E94BC
:1052C00075A720E030E040E850E40E94D4A76B01CD
:1052D0007C01C35CDE4F2881CD53D140CB5DDE4FD6
:1052E0003881C552D140C75DDE4F4881C952D14097
:1052F000C35DDE4F5881CD52D140CF5CDE4F688117
:10530000C153D140CF5BDE4F7881C154D140CB5BDC
:10531000DE4F8881C554D140C75BDE4F9881C954A8
:10532000D1400E94429D2BED3FE049E450E40E94B1
:10533000D4A720E030E040E05FE30E94D4A79B01C7
:10534000AC01C701B6010E94309E6B017C01C50112
:10535000B4010E9475A72FE632E143E85AE30E94A8
:10536000D4A74B015C01B701A6018EE994E00E942D
:105370004F34B501A40188E994E00E944F342AE932
:1053800039E949E15FE3C701B6010E94D4A76B0187
:105390007C019B01AC010E94439DA50194010E94E8
:1053A000309EC65BDE4F688379838A839B83CA54B1
:1053B000D140A5019401C701B6010E94D4A720E005
:1053C00030E040E05EE30E94D4A7C25BDE4F68831A
:1053D00079838A839B83CE54D140E9E8AE2EE4E002
:1053E000BE2EF5018491882349F0082E000C990BFC
:1053F0000E94757F3FEFA31AB30AF3CFB701A6014E
:1054000083E894E00E944F34C65BDE4F48815981A7
:105410006A817B81CA54D1408DE794E00E944F3469
:10542000C25BDE4F488159816A817B81CE54D14075
:1054300087E794E00E944F34CF5EDE4F88819981E8
:10544000AA81BB81C151D140840D951DA61DB71DF8
:10545000B595A795979587958093F110C75CDE4F1A
:1054600028813981C953D1402F5F3F4FC75CDE4F40
:1054700039832883C953D140C75EDE4F8880C95124
:10548000D140C35CDE4F8882CD53D140CB5EDE4F2E
:105490009880C551D140CB5DDE4F9882C552D14036
:1054A000C35EDE4FA880CD51D140C75DDE4FA882DC
:1054B000C952D140CF5DDE4FB880C152D140C35DEB
:1054C000DE4FB882CD52D140C35FDE4F88809980D5
:1054D000AA80BB80CD50D14021E0CD5ADE4F288339
:1054E000C355D1400C944B1D812C912C5401F7C80D
:1054F00040E050E0BA01FFC8C12CD12C7601E3C8CE
:105500000EE316E0F8018491882341F0082E000C88
:10551000990B0E94757F0F5F1F4FF4CF0EEF14E0C1
:10552000F8018491882341F0082E000C990B0E9409
:10553000757F0F5F1F4FF4CF609166097091670907
:105540008DE994E10E94407C0BEF14E0F801849116
:105550008823E9F0082E000C990B0E94757F0F5FDD
:105560001F4FF4CF10E000E0D0CD10E000E0CDCD33
:1055700010E000E0CACD10E000E0C7CD10E000E090
:10558000C4CD10E000E0C1CD10E000E0BECDCB59AD
:10559000DE4F0FB6F894DEBF0FBECDBFDF91CF91C7
:1055A0001F910F91FF90EF90DF90CF90BF90AF9041
:1055B0009F908F907F906F905F904F903F902F9033
:1055C0000895FF920F931F93CF93DF93EC01F62E74
:1055D0000CED15E1F8018491882341F0082E000CB0
:1055E000990B0E94757F0F5F1F4FF4CFFE018491CE
:1055F000882339F0082E000C990B0E94757F2196A4
:10560000F5CF6091F3117091F4118091F5119091A3
:10561000F6110E947A7F8AE090E00E94757FF11077
:105620000E94A4881092B30B1092B20BDF91CF911D
:105630001F910F91FF9008950F931F93CF93DF93C6
:10564000FC0120812B3301F110914B0A1430E0F45E
:10565000062FBC0190914F0BC92FD0E0F0E69F9F21
:10566000C00111248A52984F0E9463A1FE01E85E96
:10567000F54F00832196C370DD27C0934F0B1F5F4A
:1056800010934B0A81E001C080E0DF91CF911F9120
:105690000F9108950F931F93CF93DF93EC010E9416
:1056A00064640E811F812885398501151105210546
:1056B000310591F52C852223E9F13A8521502C877B
:1056C00021E0230F2A874D85241301C01A86FE018D
:1056D00024E0329FE00DF11D1124068517852089F5
:1056E00031890A831B832C833D83DC01CB01800F2E
:1056F000911FA11DB11D8E839F83A887B9878C81BF
:105700009D81892BB9F09FB7F89480910B0180623D
:1057100080930B019FBF0EC0DC01CB01801B910B5E
:10572000A20BB30BB7FD06C00E942D781E821F820C
:1057300018861986DF91CF911F910F910895CF930D
:10574000DF931F921F92CDB7DEB780E489836A830F
:10575000CE0101960E943C3781E090E00F900F90BF
:10576000DF91CF910895CF93DF93CBEED7E0FE0189
:105770008491882339F0082E000C990B0E94757FC4
:105780002196F5CF6091C50B7091C60B8091C70B28
:105790009091C80B41E050E00E94D380C8EED7E062
:1057A000FE018491882339F0082E000C990B0E9489
:1057B000757F2196F5CF6091C30B7091C40B072EB6
:1057C000000C880B990B0E9475A741E050E00E94E5
:1057D000D380C4EED7E0FE018491882339F0082EEF
:1057E000000C990B0E94757F2196F5CFE091C207BE
:1057F000F0E0EF50FF4E808190E0DF91CF910C946C
:10580000B07F80E1EAE3FAE0A2EDB1E101900D9210
:105810008A95E1F708954F925F926F927F928F92EF
:105820009F92AF92BF92CF92DF92EF92FF920F932F
:105830001F93CF93DF93CDB7DEB728970FB6F894B9
:10584000DEBF0FBECDBFFC018B0180809180A280A6
:10585000B3804480558066807780608571858285BD
:1058600093852091790930917A0940917B09509173
:105870007C090E94439D23E333E345ED52E40E94FB
:10588000429D2CEE31E14EE053E40E94309E69834C
:105890007A838B839C832DEC3CEC4CEC5DE3C5015F
:1058A000B4010E946FA787FF07C04DEC842E4CEC1B
:1058B000942EA92C4DE3B42E20E030E0A901C301C1
:1058C000B2010E946FA7882309F440C020E030E0B5
:1058D000A901C301B2010E946FA787FF12C0A301F3
:1058E0009201C501B4010E94309E0E94EE9D905825
:1058F00026EE3EE245E652E40E94D4A76B017C010D
:1059000003C0C12CD12C760120E030E0A901C301F5
:10591000B2010E94AA9F1816FCF4A3019201C501CE
:10592000B4010E94309E0E94EE9D26EE3EE245E6C6
:1059300052E40E94D4A79B01AC0160E070E084E3D4
:1059400093E40E94429D6B017C0106C0C12CD12CC6
:1059500034EBE32E32E4F32E26EE3EE245E652E44B
:10596000C701B6010E94309E0E94E99F9B01AC01D5
:10597000C501B4010E94309E23E333E343E551E4C3
:105980000E94429D20917D0930917E0940917F09BE
:10599000509180090E94429D2CEE31E14EE053E48B
:1059A0000E94309E4B015C019B01AC0169817A81B0
:1059B0008B819C810E94309E0E94EE9D26EE3EE2ED
:1059C00045E652E40E94D4A76D837E838F83988737
:1059D00029813A814B815C81CA01B9010E94D4A717
:1059E0002B013C01A5019401C501B4010E94D4A77B
:1059F0009B01AC01C301B2010E94439D0E94F49F30
:105A00004B015C019B01AC010E94D4A72B013C011E
:105A10002EEF30EF4FE95FE30E94439D20E030E03E
:105A200040E85FE30E94429D69837A838B839C8375
:105A300027E035E14FE050E4C501B4010E94D4A74E
:105A40009B01AC0169817A818B819C810E94309E8F
:105A50000E94339D26EE3EE245E652E40E94D4A722
:105A600069837A838B839C8320E030E040E85FE3A6
:105A7000C301B2010E94439D2EEF30EF4FE95FE377
:105A80000E94429D2B013C01A5019401C501B40176
:105A90000E94439D9B01AC01C301B2010E94309E54
:105AA0000E94339D26EE3EE245E652E40E94D4A7D2
:105AB0002D813E814F8158850E94439D4B015C01A1
:105AC0002D813E814F81588569817A818B819C81AE
:105AD0000E94429D2B013C01A7019601C701B6011E
